:0200000480007A
:10000000370100801301010BE7000100130000001D
:1000100000000000000000000000000000000000E0
:10002000232E11FE232C51FE232A61FE232871FE6C
:100030002326A1FE2324B1FE2322C1FE2320D1FECC
:10004000232EE1FC232CF1FC232A01FD232811FDA2
:100050002326C1FD2324D1FD2322E1FD2320F1FD30
:10006000130101FCEF00005D8320C10383228103A3
:1000700003234103832301030325C1028325810256
:1000800003264102832601020327C1018327810140
:100090000328410183280101032EC100832E810022
:1000A000032F4100832F010013010104730020304E
:1000B00097110000938181AF170100001301811790
:1000C000170500001305852E9385C1816308B500CF
:1000D00023200500130545006FF05FFF1385413DA8
:1000E0001301C1FF9385413D630EB50083260500D2
:1000F000130545002320A100E78006000325010029
:100100006FF05FFE130141003715000013050588ED
:1001100073104530372500001305858073100530B6
:10012000EF0050336F0000000000000000000000EE
:100230000D0A00002064647233207265673A3078DA
:10024000000000002C30780063757272656E7420B7
:10025000616464723A00000074696D657220696EB1
:1002600069742073756363657373210068656C6CD2
:100270006F20776F726C642074616E672070726992
:100280006D65722032306B21000000007265616480
:1002900020307834303030303030303A00000000D8
:1002A0007265616420307834303030303030343A28
:1002B00000000000726561642030783430303030E6
:1002C0003030383A000000007265616420307834C4
:1002D000303030303030633A000000002000000041
:1002E00064647233206D6F64756C65207772697415
:1002F0006520646F6E652120636865636B696E6756
:10030000200D0A00646472332074657374203078A1
:100310003430303030303030207E20307834383057
:1003200030303030302073756363657373210D0A8C
:10033000000000007561727420737461747573201D
:1003400076616C75653A3078000000002E00000080
:100350005344204361726420434D443820737563D5
:10036000636573730000000053445F547970653A0D
:1003700053445F545950455F5632484300000000D3
:1003800053445F547970653A53445F545950455F04
:100390005632000030313233343536373839414245
:0803A000434445460000000043
:1003C400370700809307873A3706008093858700B4
:1003D4001307873A130646399376F500B306D60019
:1003E40083C6060093872700238FD7FE93564500C4
:1003F40093F6F600B306D60083C6060013558500AF
:10040400A38FD7FEE39AB7FC93067000130600038C
:10041400B307D70083C50700938706009386F6FFCA
:10042400E388C5FEB70601F01306F0FFB305F70035
:1004340083C5050003A54600135805011378F80F7A
:10044400E30A08FE23A0B6009387F7FFE390C7FEF4
:1004540067800000370701F08347050063940700B5
:10046400678000008326470013D606011376F60F33
:10047400E30A06FE2320F700130515006FF0DFFDE5
:10048400130101FF23261100EFF0DFFC8320C100DC
:100494003705008013050523130101016FF09FFB4D
:1004A40093070000370700F06394A70067800000FB
:1004B40083264700938717006FF01FFF37050080DE
:1004C400130101FF13054523232611002324810072
:1004D400EFF05FF8B707004803A507003704008072
:1004E400EFF01FEE13054424EFF0DFF6B7070048E2
:1004F40003A54700EFF0DFEC13054424EFF09FF56C
:10050400B707004803A58700EFF09FEB13054424C9
:10051400EFF05FF4B707004803A5C700EFF05FEA08
:1005240013054424EFF01FF3B707004803A50701A0
:10053400EFF01FE9032481008320C1003705008008
:1005440013050533130101016FF09FF3130101FE3D
:100554002328210137090001232C8100232A91003B
:100564002326310123244101232E11009384050005
:1005740013040500B70900801309F9FF370A008046
:10058400636294028320C101032481018324410115
:10059400032901018329C100032A810013010102F7
:1005A4006780000013050400EFF09FE113854925DF
:1005B400EFF05FEA0325040013044400EFF05FE06A
:1005C400EFF0DFEFB3772401E39C07FA13058A24E5
:1005D400EFF05FE813050400EFF09FDE6FF05FFAC1
:1005E400370502F0130101FF1305050193051000FF
:1005F40023261100EF004061B70702F01307A001A2
:1006040023A0E7001307703E23A2E704130710009A
:1006140023A6E7041307200023A0E7048320C100D6
:100624003705008013058525130101016FF05FE58F
:10063400370502F0130101FD1305050123261102FC
:1006440023248102EF00805D63040502370502F074
:1006540013050501EF00C05B1307100023ACE18014
:100664008320C10203248102130101036780000077
:10067400B70701F003A4470003A74700370500802C
:10068400130545331377D7FF23A2E700EFF09FDC70
:1006940013050400EFF0DFD2370500801305C534DD
:1006A400EFF01FDE93070000370401F083260400F7
:1006B40013870702330727002306D7FE03274400C6
:1006C40093871700939707011357870193D707015F
:1006D400E31E07FC93870702B38727001305C100B5
:1006E400238607FEEFF01FD78327440093E72700F4
:1006F4002322F4006FF0DFF62326B50067800000A4
:10070400B70703F083A747002320B50067800000E4
:10071400B70703F083A74700B7070001B3E5F50067
:100724002320B5006780000093070000370703F01B
:1007340063C4C7006780000083264700B386F500C2
:1007440083C60600938717002320D5006FF05FFE51
:1007540093070000B70603F03708000163C4C7001D
:100764006780000003A746003387F50003470700AE
:1007740093871700336707012320E5006FF01FFEFE
:100784009307F00063E8B700B7070011B3E5F5007D
:100794002320B500678000009307F00063E8B700EA
:1007A400B7070010B3E5F5002320B500678000000B
:1007B4008327450093E727002322F5006780000084
:1007C4008327450093F7F7DF2322F500B70703F0EB
:1007D40003A547001355950013451500137515001F
:1007E40067800000B70703F083A7470003250500CF
:1007F4009317150093D717012310F6009357F5416B
:10080400B3F7A7001345F5FF2380F5001355F50151
:1008140067800000130101FD232481022322910239
:1008240023202103232E310123261102130905005D
:1008340093890500930406001304000063429402A4
:100844008320C1020324810283244102032901027B
:100854008329C1011305000013010103678000000F
:10086400B38589001306E10013050900EFF09FF733
:10087400130414006FF09FFC130101FE232C81006C
:10088400232A91002328210123263101232E11003C
:10089400930405001389050013040600B7090080BA
:1008A4009305F00F370503F0EFF09FE613061000F1
:1008B4009385093B370503F0EFF0DFF583C7093B68
:1008C400B377F900638897021304F4FF1374F40FE9
:1008D400E31804FC130510008320C10103248101E3
:1008E40083244101032901018329C1001301010269
:1008F40067800000130500006FF01FFE93870181DD
:100904001365050493D685002382B70093D585012A
:100914002380A700A380B700A382C7009385018129
:1009240013066000370503F0A381D7002381070075
:100934006FF09FDF130101FE232A9100B7040080AA
:10094400232C810023282101232E110013040000ED
:100954009384043B130940009305F00F370503F01B
:10096400EFF01FDBB38584001306E100370503F0C5
:1009740013041400EFF01FE7E31024FF8320C101E8
:10098400032481018324410103290101130101028C
:1009940067800000370701F0834705006394070070
:1009A400678000008326470013D606011376F60FEE
:1009B400E30A06FE2320F700130515006FF0DFFDA0
:1009C400130101FF93054002370503F023261100AC
:1009D4002324810023229100EFF01FD2930500000D
:1009E400370503F0EFF0DFD913061000930500007C
:1009F40013050000EFF05FE81306100093050000F4
:100A040013050000EFF05FE71306100093050000E4
:100A140013050000EFF05FE61306100093050000D5
:100A240013050000EFF05FE51306100093050000C6
:100A340013050000EFF05FE41306100093050000B7
:100A440013050000EFF05FE31306100093050000A8
:100A540013050000EFF05FE2130610009305000099
:100A640013050000EFF05FE113061000930500008A
:100A740013050000EFF05FE013061000930500007B
:100A840013050000EFF05FDF13061000930500006C
:100A940013050000EFF05FDE130650099305000014
:100AA40013050000EFF09FE51305E001EF00801748
:100AB4001306F00F9305000813050000EFF0DFDBC9
:100AC400130670089305A01A13058000EFF01FE3C6
:100AD4001306F00F9305000813050000EFF0DFD9AB
:100AE400EFF05FE5370400809307043B03C727005A
:100AF400930710001304043B6314F7020347340004
:100B04009307A00A631EF700370500801305053517
:100B1400EFF05FE83705008013050523EFF09FE74A
:100B24009304500013065006930500001305700348
:100B3400EFF0DFDC1306F00F930500081305000047
:100B4400EFF09FD31306F00FB70500401305900292
:100B5400EFF0DFDA130630009305100813051000D8
:100B6400EFF09FD1630A05001305401F9384F4FF3F
:100B7400EF00400BE39804FA1306D0049305000039
:100B84001305A003EFF09FD71306F00F9305000899
:100B940013050000EFF05FCEEFF0DFD983470400C8
:100BA4003704008093F70704638207043705008045
:100BB40013058536EFF01FDE13050423EFF09FDDE8
:100BC40093050000370503F0EFF01FBD03248100F7
:100BD4008320C100832441001306100093050008FC
:100BE40013050000130101016FF01FC937050080D0
:100BF400130505386FF01FFC232205009307F0FF4F
:100C04002320F500678000002322B50067800000E0
:100C14009307F0FF2320F5006780000003250500FB
:100C240067800000B70702F023A4070423AC018007
:100C3400930700006394A7006780000083A6818166
:100C4400E38A06FE9387170023AC01806FF09FFEB2
:100C5400130101FCB7070080232E1102232C81020B
:100C6400232A910223282103232631032324410329
:100C74002322510323206103232E7101232C81019C
:100C84009387070273905730370500801305C526F4
:100C9400EFF00FFF370701F083274700B709004043
:100CA4003709004093E727002322F700B70700F035
:100CB4001307F00023A4E7001307100023A2E700A2
:100CC400EFF01F921309490023A03901B704004033
:100CD4002320290193848400370400401304C400B2
:100CE40023A09400370C0080232084001305CC2813
:100CF400EFF04FF603A50900B70B0080370B008017
:100D0400EFF00FEC13850B2AEFF0CFF40325090065
:100D1400B70A0080370A0080EFF08FEA13054B2BE7
:100D2400EFF04FF303A50400EFF08FE913858A2C4D
:100D3400EFF04FF203250400EFF08FE813050A33B8
:100D4400EFF00FF4EFF08FF7B727004023A0F70080
:100D5400B737004023A0F700B747004023A0F700AF
:100D6400B757004023A0F7001305CC28EFF08FEE0F
:100D740003A50900EFF0CFE413850B2AEFF08FED04
:100D84000325090037090048EFF08FE313054B2BC7
:100D9400EFF04FEC03A50400B70400019384F4FFC3
:100DA400EFF00FE213858A2CEFF0CFEA032504005D
:100DB40037040040EFF0CFE013050A33EFF04FECB7
:100DC400EFF0CFEF23263101B70900808327C1005C
:100DD40013044400232EF4FE8327C10093874700A5
:100DE4002326F100B3779400639A07001385C92D75
:100DF400EFF04FE613050400EFF08FDCE31824FD59
:100E0400370500801305052EEFF0CFE4B707004047
:100E1400B70400012326F100370400409384F4FF53
:100E2400B709008037090048032704008327C1005D
:100E34006306F7109305040113050400EFF00FF1A6
:100E4400B70500409385050237050040EFF00FF029
:100E5400B7050040370500409385051213050510BA
:100E6400EFF0CFEEB71500403715004093850582AB
:100E740013050580EFF08FEDB715004037150040DE
:100E84009385059213050590EFF04FECB7150040DC
:100E94009385050237150040EFF04FEBB71500407E
:100EA400371500409385051213050510EFF00FEA7E
:100EB400B71510409385050837151040EFF00FE97A
:100EC400B71510439385050837151043378401007F
:100ED400EFF0CFE7B70400F0EFF09FAE930A1000F5
:100EE4001304046A1309200093094000130A8000C4
:100EF4001305040023A25401EFF08FDA1305040054
:100F040023A22401EFF0CFD91305040023A2340156
:100F1400EFF00FD91305040023A24401EFF04FD8DA
:100F24001305040023A23401EFF08FD71305040046
:100F340023A22401EFF0CFD66FF09FFB8327C100DB
:100F440013044400938747002326F100B3779400E9
:100F5400639A07001385C92DEFF0CFCF1305040062
:100F6400EFF00FC6E31224ED37050080130545307A
:080F7400EFF04FCE6FF0DFEC4F
:040000058000000077
:00000001FF
