:0200000480007A
:10000000370100801301010BE7000100130000001D
:1000100000000000000000000000000000000000E0
:10002000232E11FE232C51FE232A61FE232871FE6C
:100030002326A1FE2324B1FE2322C1FE2320D1FECC
:10004000232EE1FC232CF1FC232A01FD232811FDA2
:100050002326C1FD2324D1FD2322E1FD2320F1FD30
:10006000130101FCEF0000268320C10383228103DA
:1000700003234103832301030325C1028325810256
:1000800003264102832601020327C1018327810140
:100090000328410183280101032EC100832E810022
:1000A000032F4100832F010013010104730020304E
:1000B000971100009381019B170100001301811823
:1000C000170500001305051A97050000938585198B
:1000D0006308B50023200500130545006FF05FFF9E
:1000E000138581991301C1FF93858199630EB50032
:1000F00083260500130545002320A100E7800600A4
:10010000032501006FF05FFE130141003715000069
:1001100013050588731045303725000013058580C9
:1001200073100530EF00C0216F00000000000000D8
:0401300000000000CB
:1002400068656C6C6F20776F726C642074616E6788
:10025000207072696D65722032306B2100000000E1
:10026000370701F08347050063920702B70701F0E3
:1002700003A747009356070193F6F60FE38A06FE9D
:100280001307A00023A0E700678000008326470033
:1002900013D606011376F60FE30A06FE2320F700B5
:1002A000130515006FF01FFC93070000370700F0DF
:1002B0006394A70067800000832647009387170098
:1002C0006FF01FFF130101FD232481022326110279
:1002D000370701F083274700370401F093F7D7FF72
:1002E0002322F700930700008326040013870702E8
:1002F000330727002306D7FE032744009387170000
:10030000939707011357870193D70701E31E07FC53
:1003100093870702B38727001305C100238607FED2
:10032000EFF01FF48327440093E727002322F40013
:100330008320C102032481021301010367800000AE
:10034000130101FE232C8100232A9100232821017F
:10035000232631012324410123225101232E1100A0
:10036000370701F083274700370500801305052470
:1003700093E727002322F700B70700F01307F000E8
:1003800023A4E7001307100023A2E70037440F005F
:10039000EFF01FEDB70400F0930A100013040424DB
:1003A0001309200093094000130A8000130504007C
:1003B00023A25401EFF05FEF1305040023A22401F0
:1003C000EFF09FEE1305040023A23401EFF0DFED00
:1003D0001305040023A24401EFF01FED13050400F0
:1003E00023A23401EFF05FEC1305040023A22401E3
:0803F000EFF09FEB6FF09FFBA3
:040000058000000077
:00000001FF
