:0200000480007A
:10000000370100801301010BE7000100130000001D
:1000100000000000000000000000000000000000E0
:10002000232E11FE232C51FE232A61FE232871FE6C
:100030002326A1FE2324B1FE2322C1FE2320D1FECC
:10004000232EE1FC232CF1FC232A01FD232811FDA2
:100050002326C1FD2324D1FD2322E1FD2320F1FD30
:10006000130101FCEF00005C8320C10383228103A4
:1000700003234103832301030325C1028325810256
:1000800003264102832601020327C1018327810140
:100090000328410183280101032EC100832E810022
:1000A000032F4100832F010013010104730020304E
:1000B00097110000938181A9170100001301811796
:1000C00017050000130585289385C1806308B500D6
:1000D00023200500130545006FF05FFF138501FD28
:1000E0001301C1FF938501FD630EB5008326050052
:1000F000130545002320A100E78006000325010029
:100100006FF05FFE130141003715000013050588ED
:1001100073104530372500001305858073100530B6
:10012000EF00806D6F000000000000000000000084
:100230000D0A00002064647233207265673A3078DA
:10024000000000002C30780063757272656E7420B7
:10025000616464723A00000074696D657220696EB1
:1002600069742073756363657373210068656C6CD2
:100270006F20776F726C642074616E672070726992
:100280006D65722032306B2100000000646F6E6576
:10029000000000002000000064647233206D6F6471
:1002A000756C6520777269746520646F6E652120B6
:1002B000636865636B696E67200D0A003C3C3C0017
:1002C000636C6561722068646D69206F75740000ED
:1002D000636C6561722068646D6920646F6E65216E
:1002E00000000000646472332074657374203078F9
:1002F0003430303030303030207E20307834383078
:1003000030303030302073756363657373210D0AAC
:10031000000000007561727420737461747573203D
:1003200076616C75653A3078000000002E000000A0
:10033000303132333435363738394142434445461B
:080340000000000000000000B5
:10035400370700809307873437060080938587002A
:1003640013078734130606339376F500B306D600D5
:1003740083C6060093872700238FD7FE9356450034
:1003840093F6F600B306D60083C60600135585001F
:10039400A38FD7FEE39AB7FC93077000930600037C
:1003A4003306F700034606006314D600639A070277
:1003B400B70601F01306F0FFB305F70083C5050087
:1003C40003A54600135805011378F80FE30A08FE45
:1003D40023A0B6009387F7FFE390C7FE6780000071
:1003E4009387F7FF6FF0DFFB370701F083470500C2
:1003F40063940700678000008326470013D6060134
:100404001376F60FE30A06FE2320F7001305150002
:100414006FF0DFFD130101FF23261100EFF0DFFC75
:100424008320C10037050080130505231301010152
:100434006FF09FFB93972500B387B70093978700CE
:100444003385A700B707C04713152500938747F7DF
:10045400371800003305F500930500001308084021
:100464006386D502930700006F004001939827002C
:10047400B308150123A0E80093871700E398C7FE8B
:1004840033050501938515006FF09FFD678000001B
:1004940093070000370700F06394A700678000000B
:1004A40083264700938717006FF01FFF37050080EE
:1004B400130101FF13054523232611002324810082
:1004C400EFF09FF2B707004803A507003704008048
:1004D400EFF01FE813054424EFF01FF1B7070048BD
:1004E40003A54700EFF0DFE613054424EFF0DFEF48
:1004F400B707004803A58700EFF09FE513054424E0
:10050400EFF09FEEB707004803A5C700EFF05FE4E4
:1005140013054424EFF05FEDB707004803A5070176
:10052400EFF01FE3032481008320C100370500801E
:1005340013050531130101016FF0DFED130101FE15
:100544002328210137090001232C8100232A91004B
:100554002326310123244101232E11009384050015
:1005640013040500B70900801309F9FF370A008056
:10057400636294028320C101032481018324410125
:10058400032901018329C100032A81001301010207
:100594006780000013050400EFF09FDB13854925F5
:1005A400EFF09FE40325040013044400EFF05FDA46
:1005B400EFF0DFEFB3772401E39C07FA13058A24F5
:1005C400EFF09FE213050400EFF09FD86FF05FFA9D
:1005D400370502F0130101FF13050501930510000F
:1005E40023261100EF004011B70702F0130700059E
:1005F40023A0E7001307703E23A2E70413071000AB
:1006040023A6E7041307200023A0E7048320C100E6
:100614003705008013058525130101016FF09FDF65
:10062400370502F0130101FD13050501232611020C
:1006340023248102EF00800D63040502370502F0D4
:1006440013050501EF00C00B1307100023A4E1807C
:100654008320C10203248102130101036780000087
:10066400B70701F003A4470003A74700370500803C
:10067400130545311377D7FF23A2E700EFF0DFD648
:1006840013050400EFF0DFCC370500801305C532F5
:10069400EFF05FD893070000370401F083260400CD
:1006A40013870702330727002306D7FE03274400D6
:1006B40093871700939707011357870193D707016F
:1006C400E31E07FC93870702B38727001305C100C5
:1006D400238607FEEFF05FD18327440093E72700CA
:1006E4002322F4006FF0DFF6232205009307F0FFC6
:1006F4002320F500678000002322B50067800000F6
:100704009307F0FF2320F500678000000325050010
:1007140067800000B70702F023A4070423A4018024
:10072400930700006394A7006780000083A681807C
:10073400E38A06FE9387170023A401806FF09FFECF
:100744006340050663C60506138605009305050088
:100754001305F0FF630C060293061000637AB600DB
:100764006358C0001316160093961600E36AB6FE8B
:100774001305000063E6C500B385C5403365D500A5
:1007840093D6160013561600E39606FE6780000003
:1007940093820000EFF05FFB138505006780020081
:1007A4003305A0406348B000B305B0406FF0DFF9F3
:1007B400B305B04093820000EFF01FF93305A04069
:1007C400678002009382000063CA0500634C050041
:1007D400EFF09FF71385050067800200B305B04072
:1007E400E35805FE3305A040EFF01FF63305B04093
:0407F4006780020018
:1007F800130101FCB7070080232E1102232C81026C
:10080800232A910223282103232631032324410389
:100818002322510323206103232E710193870702AA
:1008280073905730370500801305C526EFF05FBE7B
:10083800370701F0832747003704004093E7270074
:100848002322F700B70700F01307F00023A4E700FE
:100858001307100023A2E700EFF05FD7B7070040A7
:10086800938707082320840013044400E31CF4FE44
:100878009305040037050040372A0040EFF0DFCB2E
:10088800B739004023204A01EFF01FC23749004022
:1008980023A03901EFF05FC1B7540040232029019C
:1008A800EFF09FC023A09400EFF01FC0B7050040F1
:1008B8009385050237050040EFF01FC8B7050040D3
:1008C8009385050A13050400EFF01FC723204A018A
:1008D80023A039012320290123A09400B707004051
:1008E8002324F1001307F0FFB71700483725040049
:1008F80023A0E700130505EBEFF05FB9370500808B
:100908001305C528B7040001EFF09FB03704034072
:10091800232401009384F4FFB709008037090048B5
:100928008327810013044400232EF4FEB377940038
:10093800639A070013854929EFF0DFAA130504001D
:10094800EFF0DFA0E31E24FDB7070340B704000162
:100958002324F100370403409384F4FFB70900808F
:10096800370900488327810013044400232EF4FE2E
:1009780083278100938747002324F100B3779400ED
:10098800639A070013854929EFF0DFA513050400D2
:10099800EFF0DF9BE31824FD370500801305852958
:1009A800EFF05FA4B7070340B70400012324F10068
:1009B800370403409384F4FFB709008037090048DF
:1009C80003270400832781006308F70E370500809A
:1009D8001305C52BEFF0DFA39305040213050400EC
:1009E800EFF09FB5370500801305052CEFF05FA2E7
:1009F800379788FFB707C04713078788B7060048A7
:100A080023A0E70093874700E39CD7FE37050080C3
:100A18001305052DEFF0DF9F9307F0FFA3030100F7
:100A2800370901FF2326F100130A4000930A10003A
:100A3800130B2000130909F0B70B00FF93044000C3
:100A4800938BFB0F1304400093093000034571009A
:100A580093055000EFF09FD31375F50F6302350B24
:100A68006304450B630855099307F0FF631665098E
:100A7800232671010327C1009306802A1306804D9F
:100A88009305400113054001EFF09F9A83477100D9
:100A9800130520031304F4FF9387170093F7F70F48
:100AA800A303F100EFF0DFC6E31204FA9384F4FF26
:100AB800E39A04F86FF05FF8832781001304440079
:100AC800938747002324F100B3779400639A0700C3
:100AD80013854929EFF01F9113050400EFF01F87D4
:100AE800E31024EF370500801305452EEFF09F8FA4
:100AF8006FF05FEFB70700FF2326F1006FF09FF755
:100B0800232621016FF01FF7B707FFFF6FF0DFFE05
:040000058000000077
:00000001FF
