:0200000480007A
:10000000370100801301010BE7000100130000001D
:1000100000000000000000000000000000000000E0
:10002000232E11FE232C51FE232A61FE232871FE6C
:100030002326A1FE2324B1FE2322C1FE2320D1FECC
:10004000232EE1FC232CF1FC232A01FD232811FDA2
:100050002326C1FD2324D1FD2322E1FD2320F1FD30
:10006000130101FCEF00501D8320C1038322810393
:1000700003234103832301030325C1028325810256
:1000800003264102832601020327C1018327810140
:100090000328410183280101032EC100832E810022
:1000A000032F4100832F010013010104730020304E
:1000B00097110000938181B417010000130181188A
:1000C00013858180938501A86308B500232005006E
:1000D000130545006FF05FFF17250000130545DB92
:1000E0001301C1FF97250000938585DA630EB500E3
:1000F00083260500130545002320A100E7800600A4
:10010000032501006FF01FFE1301410037150000A9
:1001100013050588731045303725000013058580C9
:1001200073100530EF10405A6F000000000000000F
:0401300000000000CB
:1002400068656C6C6F20776F726C64210000000031
:100250002064647233207265673A307800000000D1
:100260002C30780063757272656E742061646472FC
:100270003A00000074696D657220696E69742073BC
:10028000756363657373210068656C6C6F20776FAD
:10029000726C642074616E67207072696D65722083
:1002A00032306B210000000068656C6C6F776F72F4
:1002B0006C6420535452494E470A00006D656D6FBF
:1002C00072792D746573740D0A0000006D656D6F91
:1002D00072792D6C6F6720535452494E470A0000C3
:1002E00068646D692D666C7573680D0A0000000006
:1002F00068656C700D0A0000646F6E650000000098
:10030000656E7465722072696E67427566664861D3
:100310006E646C6546756E006D656D6F72792D74D7
:1003200065737420737461727421000020000000F2
:100330007365742030783430303330303030207E84
:1003400020307834383030303030302076616C20D6
:100350003000000064647233206D6F64756C65203A
:10036000777269746520646F6E65212063686563C8
:100370006B696E67200D0A003C3C3C00646472337C
:100380002074657374203078343030303030303041
:10039000207E203078343830303030303020737563
:1003A0006363657373210D0A00000000307800005C
:1003B000636C6561722068646D69206F75740000FC
:1003C000636C6561722068646D6920646F6E65217D
:1003D000000000003E636D643A00000020202020F1
:1003E000000000003031323334353637383941427D
:1003F00043444546000000000000034000000000A8
:1006780013071000A389E1806780000013071000AA
:10068800A388E18067800000130710002388E180B9
:1006980067800000130101FF130710001305000015
:1006A800232611002389E180EF00C0479306C0018B
:1006B8001306000013089000930850009305C0FF2C
:1006C80003470500930707FD93F7F70F637CF800CE
:1006D8009307F7F993F7F70F63E4F802130797FA0C
:1006E8009377F70FB397D7009386C6FF3306F600C4
:1006F80013051500E396B6FCB707008023ACC73E88
:100708008320C100130101016780000037070080C2
:100718009307074037060080938587001307074033
:100728001306463E9376F500B306D60083C6060048
:1007380093872700238FD7FE9356450093F6F6003C
:10074800B306D60083C6060013558500A38FD7FECF
:10075800E39AB7FC93077000930600033306F7008B
:10076800034606006314D600639A0702B70601F031
:100778001306F0FFB305F70083C5050003A546007F
:10078800135805011378F80FE30A08FE23A0B600F2
:100798009387F7FFE390C7FE678000009387F7FF12
:1007A8006FF0DFFB370701F083470500639407000C
:1007B800678000008326470013D606011376F60FDC
:1007C800E30A06FE2320F700130515006FF0DFFD8E
:1007D800130101FF23261100EFF0DFFC8320C10085
:1007E800370500801305452F130101016FF09FFBAA
:1007F80037050080130101FF130505242326110086
:100808002324810023229100EFF09FFC13050000B0
:10081800EF00403193848181930505001306400160
:1008280013858181EF10C040A38A0400138581815C
:10083800032481008320C1008324410013010101A6
:100848006FF01FF993972500B387B7009397870038
:100858003385A700B707C04713152500938747F7C7
:10086800371800003305F500930500001308084009
:100878006386D502930700006F0040019398270014
:10088800B308150123A0E80093871700E398C7FE73
:1008980033050501938515006FF09FFD6780000003
:1008A80093070000370700F06394A70067800000F3
:1008B80083264700938717006FF01FFF37050080D6
:1008C800130101FF130505252326110023248100A8
:1008D800EFF05FEDB707004803A507003704008075
:1008E800EFF0DFE213050426EFF0DFEBB70700486F
:1008F80003A54700EFF09FE113050426EFF09FEAF8
:10090800B707004803A58700EFF05FE0130504264A
:10091800EFF05FE9B707004803A5C700EFF01FDF56
:1009280013050426EFF01FE8B707004803A50701E1
:10093800EFF0DFDD032481008320C100370500804C
:100948001305853A130101016FF09FE8130101FEB9
:100958002328210137090001232C8100232A910033
:100968002326310123244101232E110093840500FD
:1009780013040500B70900801309F9FF370A00803E
:10098800636294028320C10103248101832441010D
:10099800032901018329C100032A810013010102EF
:1009A8006780000013050400EFF05FD61385893DCA
:1009B800EFF05FDF0325040013044400EFF01FD5B8
:1009C800EFF0DFEFB3772401E39C07FA13054A261B
:1009D800EFF05FDD13050400EFF05FD36FF05FFA0F
:1009E800370502F0130101FF1305050193051000F7
:1009F80023261100EF009017B70702F01307000530
:100A080023A0E7001307703E23A2E7041307100092
:100A180023A6E7041307200023A0E7048320C100CE
:100A28003705008013054527130101016FF05FDAD0
:100A3800370502F0130101FF1305050123261100F4
:100A48002324810023229100EF00901363060502FE
:100A5800370502F013050501EF00D0111307100048
:100A680023AAE1808320C10003248100832441005C
:100A78001301010167800000B70701F003A74700D1
:100A880003A74700370401F01377D7FF23A2E70035
:100A980093840183832504001385040093F5F50FDF
:100AA800EF00C00C8327440093D78701E39407FE27
:100AB8008327440093E727002322F4006FF09FFA6E
:100AC80003274504B70600809386F603130717002B
:100AD8003377D70083270504635807001307F7FF08
:100AE800136707FC13071700638CE70203278504C5
:100AF80063080702B7060080938717009386F603FA
:100B0800B3F7D70063D807009387F7FF93E707FC8D
:100B1800938717001307F7FF2320F5042324E50420
:100B28006780000093172500B387A70093972700D5
:100B38009387C700138501A63305F5006780000079
:100B48009307F0FF232005042322F504232405043A
:100B580023260522678000009307F0FF2320050461
:100B68002322F50423240504678000008327450415
:100B7800370700801307F70393871700B3F7E700D9
:100B880063D807009387F7FF93E707FC938717005D
:100B98002322F504B307F5002380B70083278504D3
:100BA8001307E003938717002324F504639AE700EB
:100BB8009307F0FF232005042322F50423240504CA
:100BC8006780000003264504B70600809386F60375
:100BD80093071600B3F7D7000327050463D8070067
:100BE8009387F7FF93E707FC93871700631AF700CB
:100BF80023800500A38005001305200067800000FE
:100C08003307C740635407001307070437060080FB
:100C1800930600001306F6036356D7001305000079
:100C28006780000083270504B387F600B3F7C70081
:100C380063D807009387F7FF93E707FC93871700AC
:100C4800B307F50003C80700B387D50093861600DD
:100C5800238007016FF05FFC2326052267800000D0
:100C6800130101F8232E1106232C8106232A91064D
:100C7800232821072326310723244107232251074C
:100C880023206107232E7105232C8105232A910532
:100C98002328A1052326B10503C705002320C10089
:100CA80063180712130510008320C1070324810766
:100CB80083244107032901078329C106032A8106E2
:100CC800832A4106032B0106832BC105032C8105CA
:100CD800832C4105032D0105832DC104130101084F
:100CE80067800000638ED72693871700B389F400C6
:100CF80003C70900E31807FE03C7F9FF9307A0001D
:100D0800E312F7FA13068002930500001305810128
:100D1800EF008075938D040093070000130D000009
:100D2800130B00021309A000130A1000930A900481
:100D3800930B6004130C3005930C400563823D0748
:100D480003C60D009386170063046601631A261F05
:100D58009387060313070101B386E700238C06FC7B
:100D6800631C0D0A8327C422638807001306C40482
:100D78009306000063C8F606139517003305F500BF
:100D8800131545003305A40013068002930581015D
:100D98001305C504EF00D06983C71D0063942719A4
:100DA8000327C4228326010093171700B387E7009F
:100DB80093974700B307F40023AAD706635CA019EA
:100DC800130717002326E422130500006FF0DFED58
:100DD800130405009384050093070000930670022E
:100DE8006FF0DFF013050600938504002322C1008D
:100DF8002326D1002324F100EF00C074032641000C
:100E080013060603E30005EA8326C1008327810051
:100E1800938616006FF01FF6E346AAE9834781011F
:100E280063925705834691019307E004E39CF6E635
:100E38008346A10193074005E396F6E68326C4227C
:100E480093971600B387D70093972700B387A70116
:100E58009387770193972700B307F40023AC070023
:100E68006FF09FF3639E7705834691019307C00453
:100E7800E39AF6E28346A1019307F004E394F6E2CD
:100E88008346B10193071004E39EF6E08346C1014F
:100E980093074005E398F6E08326C422939716004B
:100EA800B387D70093972700B387A7019387770164
:100EB80093972700B307F40023AC47016FF0DFEDE9
:100EC800E39287DF83479101E39E97DD8346A10183
:100ED80093072005E398F6DC8347B101E39457DDD7
:100EE8008346C1019307E004E39EF6DA8346D10105
:100EF80093077004E398F6DA8326C42293971600C2
:100F0800B387D70093972700B387A7019387770103
:100F180093972700B307F4009306200023ACD7006B
:100F28006FF09FE783C70D00E38C27E7130D1D00C3
:100F380093060000938D1D00938706006FF01FE055
:100F48009387070313070101B387E700238CC7FCC6
:100F58006FF05FFE9306F0FF23ACD7066FF05FE6F5
:100F6800130570006FF05FD4130101FE232E1100EA
:100F7800232C8100232A91002328210123263101D3
:100F8800232441010324C522630E040893040500A9
:100F9800138A05009309C5041309000063468900F4
:100FA800130510006F0080051385090093050A00DA
:100FB800EF00405993890903631205069307F4FF6C
:100FC80023A6F4223304244193171900B387270179
:100FD8001316140093974700330686009385C707B6
:100FE800131646009387C704130606FDB385B4009D
:100FF8003385F400EF001033130500008320C1018E
:101008000324810183244101032901018329C100AB
:10101800032A8100130101026780000013091900E7
:101028006FF0DFF7130520006FF05FFD8327C522FF
:1010380063820732130101F923248106232611064E
:101048002322910623202107232E3105232C410535
:10105800232A5105232861052326710523248105A8
:10106800232291052320A105232EB10383274504BC
:10107800370700801307F70393871700B3F7E700D4
:10108800832605041304050063D807009387F7FF38
:1010980093E707FC93871700130520006384F6265F
:1010A80037060080130700001306F6039305A00017
:1010B800B307D700B3F7C70063D807009387F7FFD4
:1010C80093E707FC93871700B307F40083C707006B
:1010D800638CB700832784049387F7FF6388E72628
:1010E800130717006FF0DFFC37070080930A000032
:1010F8001307F703930500021305A000B387DA006E
:10110800B3F7E70063D807009387F7FF93E707FC77
:1011180093871700B307F40083C707006384B700F9
:10112800639CA70A93870A03B3872700238C07FCCD
:10113800938701A623A4070023960700130BC40472
:10114800938B0A00130C000093040000138A01A675
:10115800130910009309800093050B001305810003
:10116800EF00403E6314050EB70C0080938CFC031F
:10117800930D000293061000130DA0001306200023
:1011880083270404B387FA00B3F7970163D80700ED
:101198009387F7FF93E707FC93871700B307F400DB
:1011A80083C7070013870B03330727006384B7013E
:1011B800639AA709230C07FC23200A006314DC04A4
:1011C8008327CB026344FC0263DE070293077000A7
:1011D8002320FA006F00000313068100330656012E
:1011E8002300F600938A1A006FF05FF1E390C7FEC0
:1011F800930581001305CA00EF00D03D9306100047
:10120800130620008327040423140100B387FA007F
:10121800B3F7970163D807009387F7FF93E707FCB5
:1012280093871700B307F40083C70700638EA703EB
:10123800130C1C00930BF0FF938B1B00938A1A006E
:101248006FF01FF4230CF7FC6FF01FFF930780006B
:101258002320FA008327C4229387F7FF6396970019
:10126800930710002320FA0083270A0063942703BA
:101278009304A00083270404B307F40083C707007E
:101288006390970C13050400EFF09F83130510007B
:101298006F004007638637031309A000638A0702BB
:1012A8009304A00083270404B307F40083C707004E
:1012B800E38A97FC13050400EFF09F806FF09FFE10
:1012C80093841400130B0B036FF01FE9EFF04FFF2B
:1012D8008327040413050400B307F40083C7070039
:1012E800E39627FFEFF0CFFD93971400B38797009D
:1012F80093974700B307F40083A74707E7800700E1
:1013080003250A008320C10603248106832441069D
:10131800032901068329C105032A8105832A41057A
:10132800032B0105832BC104032C8104832C410466
:10133800032D0104832DC1031301010767800000F9
:1013480013050400EFF0CFF76FF0DFF2130520006C
:101358006FF05FFB13051000678000002322050073
:101368009307F0FF2320F500678000002322B500D3
:10137800678000009307F0FF2320F50067800000D6
:101388000325050067800000B70702F023A40704BF
:1013980023AA0180930700006394A70067800000D8
:1013A80083A64181E38A06FE9387170023AA01805A
:1013B8006FF09FFE6340050663C6050613860500A9
:1013C800930505001305F0FF630C06029306100051
:1013D800637AB6006358C000131616009396160079
:1013E800E36AB6FE1305000063E6C500B385C54091
:1013F8003365D50093D6160013561600E39606FEFD
:101408006780000093820000EFF05FFB1385050002
:10141800678002003305A0406348B000B305B040C0
:101428006FF0DFF9B305B04093820000EFF01FF9C9
:101438003305A040678002009382000063CA05005C
:10144800634C0500EFF09FF71385050067800200E5
:10145800B305B040E35805FE3305A040EFF01FF692
:101468003305B040678002001303F000130705003E
:10147800637EC3029377F7006390070A63920508B7
:10148800937606FF1376F600B386E6002320B700AE
:101498002322B7002324B7002326B7001307070128
:1014A800E366D7FE6314060067800000B306C340F6
:1014B8009396260097020000B38656006780C60000
:1014C8002307B700A306B7002306B700A305B70094
:1014D8002305B700A304B7002304B700A303B7008C
:1014E8002303B700A302B7002302B700A301B70084
:1014F8002301B700A300B7002300B70067800000EE
:1015080093F5F50F93968500B3E5D50093960501FD
:10151800B3E5D5006FF0DFF6939627009702000039
:10152800B386560093820000E78006FA9380020093
:10153800938707FF3307F7403306F600E378C3F6CF
:101548006FF0DFF33367B5009303F0FF13773700CD
:1015580063100710B7877F7F9387F7F70326050087
:1015680083A60500B372F6003363F600B382F20077
:10157800B3E26200639272106316D6080326450030
:1015880083A64500B372F6003363F600B382F20017
:10159800B3E26200639E720C6316D60603268500CA
:1015A80083A68500B372F6003363F600B382F200B7
:1015B800B3E262006398720C6316D6040326C50072
:1015C80083A6C500B372F6003363F600B382F20057
:1015D800B3E262006392720C6316D6020326050119
:1015E80083A60501B372F6003363F600B382F200F6
:1015F800B3E26200639C720A1305450193854501B5
:10160800E30ED6F41317060193970601631EF7003D
:101618001357060193D706013305F7409375F50F65
:1016280063900502678000001357070193D70701ED
:101638003305F7409375F50F639405006780000044
:101648001377F70F93F7F70F3305F740678000001C
:101658000346050083C6050013051500938515008C
:101668006314D600E31606FE3305D64067800000F3
:101678001305450093854500E31CD6FC13050000BF
:10168800678000001305850093858500E312D6FC6A
:1016980013050000678000001305C5009385C50089
:1016A800E318D6FA1305000067800000130505014A
:1016B80093850501E31ED6F8130500006780000036
:1016C800130101FAB7070080232E1104232C81048B
:1016D800232A9104232821052326310523244105A3
:1016E8002322510523206105232E7103232C810316
:1016F800232A91032328A1032326B10393870702F2
:10170800739057303705008013058528EFF04F8C0C
:10171800370701F0832747009384818193E72700E7
:101728002322F700B70700F01307F00023A4E7000F
:101738001307100023A2E70093848401EFF04FAA57
:1017480013850400EFF0CFBFB7050080138601C0F2
:101758009385852A13850400EFF08FD0B7050080A4
:10176800138601A89385C52B13850400EFF04FCF8E
:10177800B7050080138641AA9385C52C13850400FC
:10178800EFF00FCEB70500801386C1A89385052E0C
:1017980013850400EFF0CFCCB7050080138681A92C
:1017A8009385052F13850400EFF08FCBB7170048FA
:1017B8001307F0FF23A0E70013054006EFF0DFBC96
:1017C800370500801305852FEFF08F8037050080DF
:1017D80013050530EFE0DFFF93870183B7040001AD
:1017E800138481812326F1009384F4FF370A008053
:1017F800370900800325C100EFF05F83130520033C
:10180800EFF09FB883C731816386071037050080E2
:10181800B707004013058531A3890180232AF10009
:10182800B7090340EFE0DFFAB70A0048232A0100AE
:10183800832741019389490023AEF9FEB3F7990044
:10184800639A07001305CA32EFE0DFF51385090034
:10185800EFE0DFEBE39E59FD1305893AEFE05FF710
:101868003705008013050533EFE09FF6B7070340FF
:10187800232AF100B7090340B70A0048832741012A
:101888009389490023AEF9FE8327410193874700D6
:10189800232AF100B3F79900639A07001305CA32A7
:1018A800EFE05FF013850900EFE05FE6E39859FD8C
:1018B8001305893AEFE0DFF1370500801305453558
:1018C800EFE05FEEB7070340232AF100B7090340B2
:1018D800B70A004803A70900832741016300F718E6
:1018E8003705008013058537EFE09FEE93850902E1
:1018F80013850900EFF08F851305893AEFE05FED56
:10190800B70700486398F900370500801305C53705
:10191800EFE05FE903C72181631A071603C7118146
:101928006300070E37050080A38801801305053B77
:10193800B7070040232CF100EFE09FE9379788FFB5
:10194800B707C04713078788B706004823A0E700F2
:1019580093874700E39CD7FE370500801305053CB5
:10196800EFE01FE79307F0FFA3090100B70D01FFA0
:10197800B70900FF232EF100130D4000930A400021
:10198800130B1000130C2000938D0DF09389F90FA1
:10199800930C40000345310193055000EFF09FA6DA
:1019A8001375F50F930730006306F516630855178E
:1019B800630C65159307F0FF631A8515232E310113
:1019C8000327C1019306802A1306804D9305400121
:1019D80013054001EFE01FE783473101130520039A
:1019E800938CFCFF9387170093F7F70FA309F10077
:1019F800EFF09F99E3900CFA130DFDFFE31A0DF831
:101A080003C70181E30807DE370500801305453D5C
:101A18002388018093094406EFE09FDB930A0000C6
:101A280083274424E3D8FADC370500801305C53D35
:101A3800EFE05FD713850900EFE0DFD603A7C902FF
:101A48009307F0FF6306F7001305893AEFE05FD8C4
:101A5800938A1A00938909036FF09FFC8327410139
:101A68009389490093874700232AF100B3F7990027
:101A7800639A07001305CA32EFE0DFD21385090025
:101A8800EFE0DFC8E39859E56FF01FE7238901808D
:101A9800B707008083A9873FB7F7FFFF130B1040F4
:101AA80063E4F900130B1000130BFBFF930A00000B
:101AB800B70C0080370D0080930D7000E3005BE7E2
:101AC80013FC7A00631E0C001385CC3AEFE09FCD1F
:101AD80013850900EFE09FC313058D3DEFE09FCC10
:101AE80003A50900EFE09FC21305CA32EFE09FCBC0
:101AF8006316BC011305893AEFE09FCD938A1A005B
:101B0800938949006FF09FFBB70700FF232EF10070
:101B18006FF01FEB232EB1016FF09FEAB707FFFFAD
:041B28006FF0DFFE7D
:101B2C0063F6A5023387C5006372E502B307C500EF
:101B3C00630606048346F7FF9387F7FF1307F7FF47
:101B4C002380D700E318F5FE678000009307F000B0
:101B5C0063E8C702930705009306F6FF6302060CC1
:101B6C0093861600B386D70003C70500938717002A
:101B7C0093851500A38FE7FEE398D7FE67800000DE
:101B8C00B367B50093F7370063960708930806FF11
:101B9C0093F808FF93880801B30615011387050015
:101BAC009307050003280700130707019387070114
:101BBC0023A807FF032847FF23AA07FF032887FF53
:101BCC0023AC07FF0328C7FF23AE07FFE39CD7FC1A
:101BDC001378C600B38515011377F6006304080467
:101BEC001308C7FF1378C8FF13084800B387060112
:101BFC0013870500832807009386460013074700C8
:101C0C0023AE16FFE398F6FE13763600B385050176
:101C1C006FF09FF49306F6FF930705006FF05FF4E7
:0C1C2C0067800000130607006FF01FF334
:101C3800B3C7A50093F73700B308C5006394070638
:101C48009307300063F0C706937735001307050044
:101C5800639A070613F6C8FFB306E6409307000227
:101C680063CED70893860500930707006378C702F9
:101C780003A80600938747009386460023AE07FF14
:101C8800E3E8C7FE9307F6FFB387E74093F7C7FF7C
:101C9800938747003307F700B385F500636817019A
:101CA80067800000130705006378150583C70500E2
:101CB8001307170093851500A30FF7FEE398E8FEB6
:101CC8006780000083C60500130717009377370065
:101CD800A30FD7FE93851500E38E07F683C605008C
:101CE8001307170093773700A30FD7FE93851500C6
:101CF800E39A07FC6FF01FF667800000130101FFED
:101D0800232681001304000283A3050083A2450053
:101D180083AF850003AFC50083AE050103AE45015F
:101D280003A3850103A8C50183A60502130747027B
:101D3800B307E640232E77FC232057FE2322F7FF24
:101D48002324E7FF2326D7FF2328C7FF232A67FE7C
:101D5800232C07FF232ED7FE93854502E346F4FA8A
:101D680093860500930707006378C70203A8060057
:101D7800938747009386460023AE07FFE3E8C7FE34
:101D88009307F6FFB387E74093F7C7FF93874700AA
:101D98003307F700B385F500636817010324C10012
:101DA800130101016780000083C7050013071700AE
:101DB80093851500A30FF7FEE382E8FE83C70500AD
:101DC8001307170093851500A30FF7FEE39EE8FCA1
:041DD8006FF0DFFCCD
:101DDC00B367B50093F737006392070803A70500B4
:101DEC00B7867F7F9386F6F7B377D700B387D70094
:101DFC00B3E7E700B3E7D7001306F0FF639EC7060F
:101E0C00130605001308F0FF2320E60003A7450086
:101E1C009385450013064600B377D700B387D700E8
:101E2C00B3E7E700B3E7D700E38007FF83C70500FC
:101E3C0003C7150083C625002300F600638A07003C
:101E4C00A300E600630607002301D6006394060096
:101E5C0067800000A301060067800000930705005F
:101E6C0003C705009387170093851500A38FE7FE22
:101E7C00E31807FE67800000130605006FF01FFBD8
:040000058000000077
:00000001FF
