:0200000480007A
:10000000370100801301010BE7000100130000001D
:1000100000000000000000000000000000000000E0
:10002000232E11FE232C51FE232A61FE232871FE6C
:100030002326A1FE2324B1FE2322C1FE2320D1FECC
:10004000232EE1FC232CF1FC232A01FD232811FDA2
:100050002326C1FD2324D1FD2322E1FD2320F1FD30
:10006000130101FCEF00C0358320C103832281030B
:1000700003234103832301030325C1028325810256
:1000800003264102832601020327C1018327810140
:100090000328410183280101032EC100832E810022
:1000A000032F4100832F010013010104730020304E
:1000B00097110000938181A217010000130181179D
:1000C00017050000130585219385C1816308B500DC
:1000D00023200500130545006FF05FFF138501061F
:1000E0001301C1FF93850106630EB5008326050049
:1000F000130545002320A100E78006000325010029
:100100006FF05FFE130141003715000013050588ED
:1001100073104530372500001305858073100530B6
:10012000EF00D0146F00000000000000000000008D
:1002300074696D657220696E697420737563636596
:100240007373210068656C6C6F20776F726C64202B
:1002500074616E67207072696D65722032306B2137
:1002600000000000756172742073746174757320EE
:1002700076616C75653A3078000000002E00000051
:100280005344204361726420434D443820737563A6
:10029000636573730000000053445F547970653ADE
:1002A00053445F545950455F5632484300000000A4
:1002B00053445F547970653A53445F545950455FD5
:1002C0005632000030313233343536373839414216
:0802D000434445460000000014
:1002F400370701F083470500639407006780000017
:100304008326470013D606011376F60FE30A06FE8A
:100314002320F700130515006FF0DFFD130101FF23
:1003240023261100EFF0DFFCB70701F003A7470015
:100334009356070193F6F60FE38A06FE1307A0000F
:1003440023A0E7008320C10013010101678000009E
:1003540093070000370700F06394A700678000004C
:1003640083264700938717006FF01FFF370502F0BD
:10037400130101FF13050501930510002326110045
:10038400EF00006AB70702F01307A00123A0E700FB
:100394001307703E23A2E7041307100023A6E70403
:1003A4001307200023A0E7048320C1003705008041
:1003B40013050523130101016FF05FF6370502F001
:1003C400130101FD130505012326110223248102D3
:1003D400EF00406663040502370502F013050501CA
:1003E400EF0080641307100023ACE1808320C10276
:1003F400032481021301010367800000B70701F0A1
:1004040003A4470003A747003705008013054526CA
:100414001377D7FF23A2E700EFF09FED37070080A3
:100424009307872D37060080938587001307872D50
:100434001306462C9376F400B306D60083C6060052
:1004440093872700238FD7FE9356440093F6F60034
:10045400B306D60083C6060013548400A38FD7FEC8
:10046400E39AB7FC9306700013060003B307D700A2
:1004740083C50700938706009386F6FFE388C5FECD
:10048400B70601F01306F0FFB305F70083C50500B6
:1004940003A54600135805011378F80FE30A08FE74
:1004A40023A0B6009387F7FFE390C7FE37050080CB
:1004B4001305C527EFF09FE693070000370401F00A
:1004C4008326040013870702330727002306D7FE79
:1004D4000327440093871700939707011357870155
:1004E40093D70701E31E07FC93870702B38727000E
:1004F4001305C100238607FEEFF09FDF8327440026
:1005040093E727002322F4006FF05FEE2326B50063
:1005140067800000B70703F083A747002320B500D6
:1005240067800000B70703F083A74700B7070001FF
:10053400B3E5F5002320B5006780000093070000B1
:10054400370703F063C4C7006780000083264700B1
:10055400B386F50083C60600938717002320D500D1
:100564006FF05FFE93070000B70603F03708000141
:1005740063C4C7006780000003A746003387F50003
:100584000347070093871700336707012320E5001B
:100594006FF01FFE9307F00063E8B700B707001180
:1005A400B3E5F5002320B500678000009307F00051
:1005B40063E8B700B7070010B3E5F5002320B500E2
:1005C400678000008327450093E727002322F50076
:1005D400678000008327450093F7F7DF2322F500A7
:1005E400B70703F003A547001355950013451500FD
:1005F4001375150067800000B70703F083A7470051
:10060400032505009317150093D717012310F6004F
:100614009357F541B3F7A7001345F5FF2380F50081
:100624001355F50167800000130101FD23248102A5
:100634002322910223202103232E31012326110298
:1006440013090500938905009304060013040000B0
:10065400634294028320C102032481028324410261
:10066400032901028329C1011305000013010103B9
:1006740067800000B38589001306E10013050900B3
:10068400EFF09FF7130414006FF09FFC130101FEB9
:10069400232C8100232A91002328210123263101C0
:1006A400232E11009304050013890500130406008A
:1006B400B70900809305F00F370503F0EFF09FE6CC
:1006C400130610009385092E370503F0EFF0DFF5CC
:1006D40083C7092EB377F900638897021304F4FFE4
:1006E4001374F40FE31804FC130510008320C101F4
:1006F4000324810183244101032901018329C100C9
:100704001301010267800000130500006FF01FFE53
:10071400938701811365050493D685002382B7006E
:1007240093D585012380A700A380B700A382C700C7
:100734009385018113066000370503F0A381D70078
:10074400238107006FF09FDF130101FE232A91002C
:10075400B7040080232C810023282101232E1100BB
:10076400130400009384042E130940009305F00F32
:10077400370503F0EFF01FDBB38584001306E100B7
:10078400370503F013041400EFF01FE7E31024FF10
:100794008320C10103248101832441010329010130
:1007A4001301010267800000370701F08347050049
:1007B40063920702B70701F003A7470093560701A6
:1007C40093F6F60FE38A06FE1307A00023A0E700C2
:1007D400678000008326470013D606011376F60FC0
:1007E400E30A06FE2320F700130515006FF01FFC33
:1007F400130101FF93054002370503F0232611007E
:100804002324810023229100EFF05FD093050000A0
:10081400370503F0EFF01FD813061000930500000E
:1008240013050000EFF09FE6130610009305000087
:1008340013050000EFF09FE5130610009305000078
:1008440013050000EFF09FE4130610009305000069
:1008540013050000EFF09FE313061000930500005A
:1008640013050000EFF09FE213061000930500004B
:1008740013050000EFF09FE113061000930500003C
:1008840013050000EFF09FE013061000930500002D
:1008940013050000EFF09FDF13061000930500001E
:1008A40013050000EFF09FDE13061000930500000F
:1008B40013050000EFF09FDD130610009305000000
:1008C40013050000EFF09FDC1306500993050000A8
:1008D40013050000EFF0DFE31305E001EF0000165D
:1008E4001306F00F9305000813050000EFF01FDA5C
:1008F400130670089305A01A13058000EFF05FE15A
:100904001306F00F9305000813050000EFF01FD83D
:10091400EFF09FE3370400809307042E03C72700FA
:10092400930710001304042E631EF70003473400DA
:100934009307A00A6318F7003705008013050528FC
:10094400EFF09FE693045000130650069305000051
:1009540013057003EFF0DFDB1306F00F93050008B7
:1009640013050000EFF09FD21306F00FB705004007
:1009740013059002EFF0DFD9130630009305100839
:1009840013051000EFF09FD0630A05001305401F04
:100994009384F4FFEF00800AE39804FA1306D0046A
:1009A400930500001305A003EFF09FD61306F00F84
:1009B4009305000813050000EFF05FCDEFF0DFD8DA
:1009C4008347040093F70704638E0702370500800A
:1009D40013058529EFF05FDD93050000370503F06B
:1009E400EFF0DFBC032481008320C1008324410095
:1009F40013061000930500081305000013010101FC
:100A04006FF0DFC8370500801305052B6FF09FFCDE
:100A1400232205009307F0FF2320F50067800000E0
:100A24002322B500678000009307F0FF2320F50020
:100A3400678000000325050067800000B70702F007
:100A440023A4070423AC0180930700006394A70048
:100A54006780000083A68181E38A06FE93871700DE
:080A640023AC01806FF09FFE3E
:100A6C00130101FEB7070080232E1100232C8100F7
:100A7C00232A91002328210123263101232441011B
:100A8C00232251019387070273905730370500805A
:100A9C0013054524EFF01F88370701F08327470023
:100AAC0037840100B70400F093E727002322F700F6
:100ABC00B70700F01307F00023A4E700130710009A
:100ACC0023A2E700EFF01F8A930A1000EFF0DFD1AA
:100ADC001304046A1309200093094000130A8000D0
:100AEC001305040023A25401EFF01F861305040024
:100AFC0023A22401EFF05F851305040023A2340127
:100B0C00EFF09F841305040023A24401EFF0DF8370
:100B1C001305040023A23401EFF01F831305040016
:0C0B2C0023A22401EFF05F826FF09FFB1A
:040000058000000077
:00000001FF
