:0200000480007A
:10000000370100801301010BE7000100130000001D
:1000100000000000000000000000000000000000E0
:10002000232E11FE232C51FE232A61FE232871FE6C
:100030002326A1FE2324B1FE2322C1FE2320D1FECC
:10004000232EE1FC232CF1FC232A01FD232811FDA2
:100050002326C1FD2324D1FD2322E1FD2320F1FD30
:10006000130101FCEF3000008320C10383228103D0
:1000700003234103832301030325C1028325810256
:1000800003264102832601020327C1018327810140
:100090000328410183280101032EC100832E810022
:1000A000032F4100832F010013010104730020304E
:1000B00097310000938101C0172100001301810ACC
:1000C00013858180938541EC6308B50023200500EA
:1000D000130545006FF05FFF177500001305459687
:1000E0001301C1FF9775000093858595630EB500D8
:1000F00083260500130545002320A100E7800600A4
:10010000032501006FF01FFE1301410037150000A9
:1001100013050588731045303725000013058580C9
:1001200073100530EF50103A6F00000037050340A0
:1001300013050500E70005000000000000000000B6
:1001400000000000000000000000000000000000AF
:0401500000000000AB
:1021600068656C6C6F20776F726C642100000000F2
:10217000656E74657220746865206472616D2100FB
:102180002064647233207265673A30780000000082
:102190002C30780063757272656E742061646472AD
:1021A0003A00000074696D657220696E697420736D
:1021B000756363657373210068656C6C6F20776F5E
:1021C000726C642074616E67207072696D65722034
:1021D00032306B210000000068656C6C6F776F72A5
:1021E0006C6420535452494E470A00006D656D6F70
:1021F00072792D746573740D0A0000006D656D6F42
:1022000072792D6C6F6720535452494E470A000073
:1022100068646D692D666C7573680D0A00000000B6
:1022200068656C700D0A00006C730D0A00000000F8
:10223000636420535452494E470A00006C6F616436
:1022400020535452494E470A0000000073746172D3
:10225000742D646472330D0A00000000646F6E65B3
:102260000000000046525F4E4F5F46494C455359AF
:102270005354454D0000000046525F455252000045
:1022800070665F6D6F756E742073756363657373CD
:1022900021000000656E7465722072696E67427578
:1022A000666648616E646C6546756E006D656D6F3F
:1022B00072792D74657374207374617274210000D7
:1022C0007365742030783430303330303030207ED5
:1022D00020307834383030303030302076616C2027
:1022E0003000000064647233206D6F64756C65208B
:1022F000777269746520646F6E6521206368656319
:102300006B696E67200D0A003C3C3C0064647233CC
:102310002074657374203078343030303030303091
:10232000207E2030783438303030303030207375B3
:102330006363657373210D0A0000000030780000AC
:10234000636C6561722068646D69206F757400004C
:10235000636C6561722068646D6920646F6E6521CD
:10236000000000003E636D643A0000002020202041
:10237000000000006F70656E64697220000000004C
:10238000206572723A0000002F0000002E2E2F00F0
:102390006572726F7220706174682120636F64656A
:1023A0003A000000636420006F70656E200000003A
:1023B00070665F72656164206572726F722120635E
:1023C0006F64653A000000006C6F61642066696CA0
:1023D0006520646F6E65210070665F7265616420C0
:1023E0006572726F7221207461726765743A382C5D
:1023F000207265743A00000070665F6C7365656BEF
:10240000206572726F722120636F64653A0000006C
:102410003E616464723A3078000000002C6C656E96
:102420003A00000070665F72656164206572726FC9
:102430007221207461726765743A00002C20726505
:10244000743A00003031323334353637383941424E
:1024500043444546000000003031323334353637CE
:102460003839414243444546000000002F00000037
:10247000000000000000000000000000000000005C
:102480000000000000000000000000002F0000001D
:10249000000000000000000000000000000000003C
:1024A000000000000000000000000000000000002C
:0824B0000000034000000000E1
:102B740013071000238DE180678000001307100005
:102B8400238CE1806780000013071000A38BE18091
:102B94006780000013071000238BE180678000002A
:102BA400130101FF13071000130500002326110071
:102BB400A38CE180EF20404C9306C0011306000073
:102BC40013089000930850009305C0FF03470500C5
:102BD400930707FD93F7F70F637CF8009307F7F962
:102BE40093F7F70F63E4F802130797FA9377F70F55
:102BF400B397D7009386C6FF3306F6001305150076
:102C0400E396B6FCB727008023A8C74A8320C100F7
:102C14001301010167800000130101FE1307100076
:102C240013050000A38AE180232E1100232C8100C8
:102C3400232A9100EF2040442326A100EF30104CBA
:102C44008325C10013040500B387A50003C7F7FF5C
:102C54009307D0009384C1836314F7001304F4FF33
:102C6400B3848400130604001385C183EF30D02E8F
:102C7400238004008320C1010324810183244101B2
:102C84001301010267800000130101FE1307100005
:102C940013050000238AE180232E1100232C8100D8
:102CA400232A9100EF20403D2326A100EF30104558
:102CB4008325C10013040500B387A50003C7F7FFEC
:102CC4009307D0009384C1836314F7001304F4FFC3
:102CD400B38484001306040013850185EF30D027E4
:102CE400238A04008320C101032481018324410138
:102CF4001301010267800000372700809307874B88
:102D040037260080938587001307874B13064644B4
:102D14009376F500B306D60083C606009387270092
:102D2400238FD7FE9356450093F6F600B306D600DC
:102D340083C6060013558500A38FD7FEE39AB7FC1C
:102D440093077000930600033306F700034606005A
:102D54006314D600639A0702B70601F01306F0FF66
:102D6400B305F70083C5050003A546001358050104
:102D74001378F80FE30A08FE23A0B6009387F7FF41
:102D8400E390C7FE678000009387F7FF6FF0DFFBD7
:102D9400370701F08347050063940700678000004C
:102DA4008326470013D606011376F60FE30A06FEC0
:102DB4002320F700130515006FF0DFFD130101FF59
:102DC40023261100EFF0DFFC8320C10037250080AB
:102DD40013054522130101016FF09FFB3725008085
:102DE400130101FF13050516232611002324810076
:102DF400EFF0DFFC13050000EF2000281384C183EB
:102E04009307840293050500130640011385070008
:102E1400EF309014A30E0402032481008320C10028
:102E2400130101016FF09FF9130101FF2326110023
:102E3400370701F083274700370502F093050000A8
:102E440093F7D7FF2322F70013050501EF2010277E
:102E54003725008013050517EFF05FF6B707034029
:102E640093870702739057308320C1001301010137
:102E74006FD08FAB93972500B387B70093978700E4
:102E84003385A700B707C04713152500938747F775
:102E9400371800003305F5009305000013080840B7
:102EA4006386D502930700006F00400193982700C2
:102EB400B308150123A0E80093871700E398C7FE21
:102EC40033050501938515006FF09FFD67800000B1
:102ED40093070000370700F06394A70067800000A1
:102EE40083264700938717006FF01FFF3725008064
:102EF400130101FF13050518232611002324810063
:102F0400EFF01FE9B707004803A507003724008046
:102F1400EFF09FDE13050419EFF09FE7B7070048B1
:102F240003A54700EFF05FDD13050419EFF05FE63A
:102F3400B707004803A58700EFF01FDC1305041949
:102F4400EFF01FE5B707004803A5C700EFF0DFDA8D
:102F540013050419EFF0DFE3B707004803A50701E1
:102F6400EFF09FD9032481008320C100372500801E
:102F740013058533130101016FF05FE4130101FEB2
:102F84002328210137090001232C8100232A9100E1
:102F94002326310123244101232E110093840500AB
:102FA40013040500B72900801309F9FF372A0080AC
:102FB400636294028320C1010324810183244101BB
:102FC400032901018329C100032A8100130101029D
:102FD4006780000013050400EFF01FD213858936C3
:102FE400EFF01FDB0325040013044400EFF0DFD0EF
:102FF400EFF0DFEFB3772401E39C07FA13054A19D6
:10300400EFF01FD913050400EFF01FCF6FF05FFA44
:10301400370502F0130101FF1305050193051000A4
:1030240023261100EF209009B70702F013070005CB
:1030340023A0E7001307703E23A2E7041307100040
:1030440023A6E7041307200023A0E7048320C1007C
:10305400372500801305451A130101016FF01FD6AF
:10306400370502F0130101FF1305050123261100A2
:103074002324810023229100EF209005630605029A
:10308400370502F013050501EF20D00313071000E4
:1030940023ACE1828320C100032481008324410006
:1030A4001301010167800000B70701F003A747007F
:1030B40003A74700370401F01377D7FF23A2E700E3
:1030C4009384C187832504001385040093F5F50FC9
:1030D400EF10107F8327440093D78701E39407FE02
:1030E4008327440093E727002322F4006FF09FFA1C
:1030F4002326B50067800000B70703F083A74700C5
:103104002320B50067800000B70703F083A74700BA
:10311400B7070001B3E5F5002320B5006780000080
:1031240093070000370703F063C4C70067800000FB
:1031340083264700B386F50083C6060093871700ED
:103144002320D5006FF05FFE93070000B70603F05D
:103154003708000163C4C7006780000003A7460066
:103164003387F50003470700938717003367070188
:103174002320E5006FF01FFE9307F00063E8B7001B
:10318400B7070011B3E5F5002320B5006780000000
:103194009307F00063E8B700B7070010B3E5F50044
:1031A4002320B500678000008327450093E72700AC
:1031B4002322F500678000008327450093F7F7DF9B
:1031C4002322F500B70703F003A547001355950024
:1031D400134515001375150067800000832705004B
:1031E400E3DE07FE13F5F70F678000009307000086
:1031F40063C6C700130500006780000003270500AD
:10320400E35E07FEB386F5002380E600938717008C
:103214006FF01FFE67800000130510006780000038
:10322400130101FF93050500370503F02326110060
:10323400EFF09FED8320C100370503F01301010176
:103244006FF0DFF9130101FE93D78501A304F100A8
:1032540093D70501136505042305F10093D7850071
:10326400232C8100232A9100232E11002304A10082
:10327400A305F1002306B100A306C1001304000056
:103284009304600093078100B387870003C5070098
:1032940013041400EFF0DFF8E31694FE8320C10159
:1032A400032481018324410113010102678000008A
:1032B400130101FF370503F09305F00F23261100D6
:1032C400EFF09FE48320C100370503F013010101EF
:1032D4006FF0DFF0130101FF23229100232021016D
:1032E4002326110023248100930410041309B00041
:1032F400EFF01FFC1374F501630224039307D0005D
:10330400630EF400930750006306F4009384F4FF03
:10331400E39004FEEFF0DFF9E30E05FE8320C10025
:1033240013050400032481008324410003290100C0
:103334001301010167800000130101FF23248100B0
:103344002322910023261100930405003714000062
:103354001304F4FFEFF0DFF563009502E31A04FEB3
:103364001305F00F8320C10003248100832441004E
:1033740013010101678000001305F00FE30404FE4C
:10338400130500006FF01FFE130101FF93050000F9
:10339400370503F02326110023248100EFF0DFDD3D
:1033A400130650099305000013050000EFF09FE990
:1033B40013051000EFF05FF81304F00F631E05000F
:1033C4001304050093050000370503F0EFF05FDCFC
:1033D4001305F00FEFF0DFE48320C10013050400B0
:1033E40003248100130101016780000003C7B18138
:1033F400130101FE232C81002328210123263101FE
:10340400232E1100232A91009307400093090500FD
:103414001384050013890600631AF7001316760156
:1034240013D495003364860013090020930500002B
:10343400370503F0EFF05FD4130510011306F00F06
:1034440093050400EFF01FE013050000EFF0DFEE3A
:10345400630E05021304F00F93050000370503F013
:10346400EFF01FD31305F00FEFF09FDB8320C101B2
:10347400130504000324810183244101032901016C
:103484008329C10013010102678000001305E00FC6
:10349400EFF09FEA1304050093040000E31C05FA0F
:1034A40063E82401EFF0DFE0EFF09FE06FF0DFFA74
:1034B400EFF01FE0B38799002380A70093841400E2
:1034C4006FF01FFE130101FE2328210113090700D9
:1034D40003C7B181232A910023263101232441010A
:1034E400232E1100232C810023225101232061016A
:1034F400930740009309050093840500138A06008E
:10350400631AF7001316760193D49500B3649600FA
:10351400130A002093050000370503F0EFF0DFC520
:103524001304F00F130B000063120904370503F0B2
:1035340093050000EFF0DFC51305F00FEFF05FCE49
:103544008320C10113050400032481018324410164
:10355400032901018329C100032A8100832A410030
:10356400032B010013010102678000001305100101
:103574001306F00FB3059B00EFF0DFCC130500003A
:10358400EFF09FDB631C05041305E00FEFF0DFDAB7
:1035940013040500630005041304F00F1305F00F72
:1035A400EFF01FC81309F9FF6FF01FF8EFF05FD0B9
:1035B400B38759012380A700938A1A00E3E84AFFDE
:1035C400B3894901130B0B20EFF09FCEEFF05FCED0
:1035D4006FF0DFFC930A00006FF05FFE1304F00F3E
:1035E4006FF01FF603C7B181130101FE232C810084
:1035F4002328210123263101232E1100232A91009F
:1036040093074000930905001384050013890600FD
:10361400631AF7001316760113D4950033648600F9
:103624001309002093050000370503F0EFF0DFB421
:10363400930504001306F00F13058001EFF09FC0FB
:1036440013050000EFF05FCF13040500630E0502BD
:103654001304F00F93050000370503F0EFF05FB398
:103664001305F00FEFF0DFBB8320C1011305040045
:103674000324810183244101032901018329C10019
:1036840013010102678000001305F00FEFF05FB92A
:103694001305E00FEFF0DFB89304000063EE24019C
:1036A400EFF01FC1EFF0DFC0EFF0DFC2930750006F
:1036B400E310F5FA6FF01FFAB387990003C507000A
:1036C40093841400EFF0DFB56FF05FFD130101FE8A
:1036D400232821011309070003C7B181232C81008A
:1036E4002326310123244101232E1100232A910092
:1036F400232251012320610193074000930905000F
:1037040013840500138A0600631AF7001316760162
:1037140013D4950033648600130A00209305000037
:10372400370503F0EFF05FA59304F00F130B50007F
:1037340063120904370503F093050000EFF05FA559
:103744001305F00FEFF0DFAD8320C10103248101E5
:10375400032901018329C100032A8100832A41002E
:10376400032B01001385040083244101130101028A
:10377400678000001306F00F930504001305800111
:10378400EFF05FAC13050000EFF01FBB93040500DE
:10379400631A05041305F00FEFF09FA81305E00F5B
:1037A400EFF01FA8930A000063E44A03B3894901B8
:1037B400EFF01FB0EFF0DFAFEFF0DFB163046501AE
:1037C4009304F00F1309F9FF130404206FF05FF65C
:1037D400B387590103C50700938A1A00EFF05FA469
:1037E4006FF09FFC9304F00F6FF01FF6130101FDBF
:1037F400232481029305000013040500370503F018
:10380400232611022322910223202103232E310196
:10381400EFF09F961306F00F930500001305900038
:10382400EFF05FA213050000EFF01FB19304F00F57
:1038340063160502930405001305E00FEFF0DFAFF4
:103844001309050093090001630605221305F00F0F
:10385400EFF01F9D1305F00FEFF09F9C9305000000
:10386400370503F0EFF0DF921305F00FEFF05F9BE5
:1038740083470100A30604009305100013D76700D3
:103884002300E40013D7274093F737002301F40003
:10389400834711001377F700A300E400A301F400A9
:1038A40083572100034751002312F400834741004A
:1038B400935647001377F70093974700B3E7D70071
:1038C4002313F400834761002304E40013D7770033
:1038D400A304E40013D76740137717002305E4001B
:1038E40013D7574013771700A305E40013D74740B5
:1038F400137717002306E40037170000130707C0E7
:103904009397A700B3F7E70003C6B1812328F40017
:103914000347A1009306F6FF93F6F60F63E8D51666
:1039240003468100834671009355660093962600F2
:10393400B3E6B600B3E7F6002328F4009357364005
:1039440093F77700230AF4008347910013767600F7
:10395400A30AC40093D65700230BD40093D6274060
:1039640093F6760093971700A30BD40093F76700A0
:1039740093567700B3E7D700230CF40093576740BE
:1039840093F71700A30CF4008347B1001317170033
:103994001377E70793D6770093F7F707A30DF4009F
:1039A4008347C1003367D700230DE40013D77700A2
:1039B400230EE40013D7574013773700A30EE40017
:1039C40013D7274013777700230FE4000347D10070
:1039D4009397270093F7C70093566700B3E7D70080
:1039E400A30FF4009357574093F717002300F402F2
:1039F4008347E100137717002301E40213D777000C
:103A0400A301E40213D76740137717002302E402EB
:103A140013D7574013771700A302E40213D7474084
:103A2400137717002303E40213D7274093F73700D3
:103A34002304F4028347F10013773700A300040240
:103A440093D71700A304F40293071000A303E4021E
:103A54002305F4028320C102032481020329010205
:103A64008329C10113850400832441021301010346
:103A740067800000EFF0DF83B30721012380A700F4
:103A840013091900E31839FF6FF05FDC9307400056
:103A9400E316F6EE8347710003568100B7063F0034
:103AA40093970701B3F7D700931686001356860041
:103AB400B3E6C6009396060193D60601B3E7D70092
:103AC4002328F4006FF09FEB130101FD23248102EE
:103AD4009305000013040500370503F023261102A3
:103AE4002322910223202103232E3101EFF0CFE87A
:103AF4001306F00F930500001305A000EFF08FF4F8
:103B040013050000EFF05F839304F00F63100504C6
:103B1400930405001305E00FEFF01F82130905005D
:103B2400631E050093090001EFF08FF8B30721012C
:103B34002380A70013091900E31839FF1305F00FB8
:103B4400EFF00FEE1305F00FEFF08FED930500008B
:103B5400370503F0EFF0CFE31305F00FEFF04FEC70
:103B64008347010003471100138504002300F40078
:103B74008347210093978700B3E7E70013978700F3
:103B840093D78700B367F7002311F400034741007C
:103B9400834731001317070193978701B3E7E700C1
:103BA40003476100B3E7E700034751001317870099
:103BB400B3E7E7002322F400834771000347A10021
:103BC4002304F4008347810013170701A304F400BE
:103BD4008347910093978701B3E7E7000347C10048
:103BE400B3E7E7000347B10013178700B3E7E70023
:103BF4002326F4008347D1000347040193D64700EA
:103C04003367D7002308E40037170000130707F0D1
:103C140093978700B3F7E7000347E100B3E7E700B2
:103C24002319F4008347F10093D71700230AF40003
:103C340093071000A30AF4008320C1020324810225
:103C440083244102032901028329C10113010103D1
:103C540067800000130101FF232611002324810043
:103C6400232291001304050023202101EFF01FB843
:103C74001305C402EFF05FE583C6B181930710001A
:103C8400930405001387F6FF1377F70F63E0E70645
:103C94000346840103478400032904011306260014
:103CA4003396C7003395E7009356F6412328A404BE
:103CB40093050000EF10504713091900130609007B
:103CC40093060000EF1050462324A4042326B404D2
:103CD4008320C1000324810003290100138504000B
:103CE4008324410013010101678000009307400011
:103CF400E390F6FE832704019387170013D7D700B8
:103D0400939737012324F404930700202326E40423
:103D14002328F4046FF0DFFB130101FF9305000077
:103D2400370503F02326110023248100EFF0CFC4CC
:103D34001306F00F930500001305D000EFF08FD0A9
:103D4400EFF00FD713040500EFF08FD6131585009D
:103D54003364A40093050000370503F0EFF04FC36C
:103D6400131404011305F00FEFF08FCB1354040167
:103D74008320C10013050400032481001301010101
:103D840067800000130101FE93050000370503F06E
:103D9400232E1100232C8100232A9100EFF04FBF22
:103DA4001305F00FEFF0CFC793050000370503F0BC
:103DB400EFF08FBC130670089305A01A130580005A
:103DC40037140000EFF00FC81304F4FF9304F00F4E
:103DD400EFF00FCE63149502631E04001305F00F79
:103DE4008320C101032481018324410113010102C1
:103DF400678000001304F4FF6FF09FFDE30004FEEE
:103E0400930750006312F50693050000370503F08D
:103E1400EFF00FB81305F00FEFF08FC0930500001B
:103E2400370503F0EFF04FB5130510001306F00F3C
:103E340093050000EFF00FC113050000EFF0CFCFA2
:103E4400E31405FC13071000A38DE1809305000023
:103E5400370503F0EFF0CFB31305F00FEFF04FBCCD
:103E6400130500006FF0DFF793071000E310F5FE71
:103E74001304000093044000EFF08FC39307C100C4
:103E8400B38787002380A70013041400E31694FE6D
:103E940093050000370503F0EFF08FAF1305F00F23
:103EA400EFF00FB893050000370503F0EFF0CFAC47
:103EB4000347E10093071000E31AF7F80347F10002
:103EC4009307A00AE314F7F81304900C1305700386
:103ED4001306F00F93050000EFF0CFB613050000B2
:103EE400EFF08FC5E30C05EE1306F00FB7050040A5
:103EF400130590021304F4FFEFF0CFB4E30004EED3
:103F040013050000EFF04FC3E31205FC9305000016
:103F1400370503F0EFF0CFA71305F00FEFF04FB024
:103F240093050000370503F0EFF00FA51306F00F1B
:103F3400930500001305A003EFF0CFB013050000B4
:103F4400EFF08FBF13040500E31205FC9304400057
:103F5400EFF00FB69307C100B38787002380A70053
:103F640013041400E31694FE8347C10093F7070477
:103F740063860700A38D81806FF05FED93072000B7
:103F8400A38DF1806FF09FEC130101FF93054002B4
:103F9400370503F02326110023248100EFF04F9509
:103FA40093050000370503F0EFF08F9E1304A00083
:103FB4001305F00F1304F4FFEFF08FA6E31A04FEC9
:103FC400EFF08FBCEFF01FDC83C7B181638C070077
:103FD400032481008320C100138501A4130101017E
:103FE4006FF05FC78320C100032481001305F00F25
:103FF4001301010167800000130101FF2326110052
:10400400EFF09FF88320C1003335A00013010101B4
:1040140067800000130101FE232A910093870500A5
:10402400930405002328210123263101232441017F
:104034001309060093890600138A81A993959500B4
:1040440013D6770193060020138581A9232C8100C0
:10405400232E1100EFF08FB9130405001386090015
:10406400B3052A0113850400EF20006F63040400E4
:10407400130430008320C1011305040003248101CB
:1040840083244101032901018329C100032A8100FA
:1040940013010102678000001305300067800000EF
:1040A4000347150083470500131787003367F7009C
:1040B400834725000345350093970701B3E7E700DD
:1040C400131585013365F50067800000130101FFB6
:1040D4002324810003A4C181232611009305E5FF55
:1040E40083278400130500009387E7FF63FAF50034
:1040F40003452400EF101001832744013305F50024
:104104008320C100032481001301010167800000A2
:1041140083A7C18103C70700930730006318F70220
:10412400834755010347450193978700B3E7E700A9
:10413400939707010347A5010345B50113158500AE
:104144003365E5003365F5006780000093070000E0
:104154006FF05FFE130101FF232481002326110069
:104164001304050023100500032585001307100020
:1041740083A7C1816300E50203A787006378E50490
:10418400630205022326A400EFF05FF42328A400B1
:10419400130500008320C1000324810013010101E1
:1041A4006780000083C60700130730006388E600B9
:1041B4002326040003A507016FF05FFD03A5070193
:1041C4002326A400E31205FC6FF0DFFE13051000A4
:1041D4006FF05FFC1307100083A7C1816366A7001B
:1041E400130510006780000003A78700E37AE5FE4B
:1041F400130101FE232E110003C7070093062000BC
:10420400630ED700930630006300D7041305100033
:104214008320C101130101026780000083A5C70048
:104224001376F50F13558500B305B50093062000EA
:10423400131616001305C100EFF0DFDDE31805FCCB
:104244000355C1006FF0DFFC83A5C7001376F507A3
:1042540013557500B305B5009306400013162600E8
:104264001305C100EFF01FDBE31205FA1305C100CB
:10427400EFF01FE313154500135545006FF05FF988
:10428400130101FF2320210123261100232481008F
:10429400232291008354050003A9C181938414004F
:1042A4009394040193D4040163920402130730002D
:1042B4008320C100032481008324410003290100D9
:1042C400130507001301010167800000832705011E
:1042D40013040500E38C07FC13F7F400631E0700C6
:1042E400938717002328F5000325C500631C0500E8
:1042F40083574900E3FCF4FA2310940013070000E9
:104304006FF01FFB8347290013D744009387F7FFFF
:10431400B3F7E700E39207FEEFF0DFEB930610003C
:1043240013071000E3F6A6F803278900E370E5F805
:104334002326A400EFF09FD92328A4006FF0DFFB0D
:10434400130101FF930620001306E01F23248100BC
:1043540023229100232611001304050093840500F1
:10436400EFF05FCB93073000631C0508034714008C
:1043740083470400B7B60000131787003367F700BC
:10438400938656A593072000631CD7069306200046
:10439400130660039385040013050400EFF09FC720
:1043A400631205020347140083470400B746000064
:1043B400131787003367F70093866614930700008A
:1043C4006300D70493062000130620059385040098
:1043D40013050400EFF01FC49307100063120502D5
:1043E400834714000347040093978700B3E7E7006B
:1043F40037C7FFFF1307A7EBB387E700B337F00016
:104404008320C10003248100832441001385070015
:104414001301010167800000130101FE232C8100B8
:10442400232A910023282101232E11002326310160
:10443400232441012322510113040500138905009B
:10444400930406001307000283C70400638CE70883
:104454001307F0026394E7009384140023240400F8
:1044640003C704009307F00163F2E708930AB0005E
:104474009309F002130AE002032844001306B00073
:104484009305000213050800EF10005E13080500F1
:104494009306000093070000130780001305000231
:1044A40013861700B387F40083C707001376F60F4B
:1044B4006376F506638437076386471163F0E6067F
:1044C40093881600B306D800930507002380F600EE
:1044D40013F7F80F930607009307060013870500E8
:1044E4006FF01FFC938414006FF01FF61305040093
:1044F400EFF05FC6230009008320C101032481017A
:1045040083244101032901018329C100032A810075
:10451400832A4100130101026780000093B7170248
:10452400A305F80013050400B384C400EFF09FC290
:10453400E31405FC035604008325040193060002DA
:104544001376F6001316560013050900EFF09FAC1E
:104554006312050683470900638207060347B9000F
:104564009377870063900702832644003306F9009B
:10457400834506003386F60003460600938717003A
:104584006388C50013050400EFF09FCF6FF05FFA56
:10459400E39E57FD83C7B600E39007F61377070140
:1045A400630E070013050900EFF09FB62324A4004F
:1045B4006FF09FEC130510006FF01FF4130530002B
:1045C4006FF09FF393068000E31AD7F49305B000CD
:1045D4006FF05FF0130101FA23244105232A9104AB
:1045E40023263105232E1104232C8104232821059D
:1045F40023225105232061059304050023AE018085
:10460400EFF09F9F1375150093092000631C0502AA
:10461400930500001305C101EFF09FD2930710002A
:1046240013040000631AF506930600011306E01B49
:10463400930500001305C101EFF0DF9D630A050235
:10464400930910008320C1050324810583244105B7
:1046540003290105032A8104832A4104032B01044D
:10466400138509008329C104130101066780000032
:104674008347010263960700930960006FF09FFC73
:1046840013054102EFF0DFA11304050093050500B3
:104694001305C101EFF0DFCA93073000E302F5FA16
:1046A400E31C05FC930640021306D00093050400A6
:1046B4001305C101EFF01F9693090500E31205F8F5
:1046C400834561028347510293958500B3E5F50064
:1046D4006398050013053103EFF09F9C93050500D3
:1046E4000345F101EF1000220349E1018347D101A1
:1046F4008345C101035B010213198900930A050074
:104704003369F900035521023304890023A6840088
:104714002381B40023926401631A05001305F10296
:104724002326B100EFF0DF978325C100135B4B0014
:10473400330969013309590133052541EF10002874
:10474400B7F7FFFF9387A700130725003305F5008C
:10475400B7F7000023A4E4009387E7FF63FEA702F2
:10476400B7070100938767FFE3F8E7F0930730008A
:104774002380F4001305B103EFF09F923304640126
:104784003304540123A8A40023AA8400A3800400B2
:1047940023AE91806FF01FEB930720002380F40079
:1047A400330554016FF09FFD130101FB2322910493
:1047B40083A4C181232481042326110413045000FB
:1047C400638E040413060500A3800400930501020C
:1047D4001305C10023282100EFF01FC413040500B2
:1047E400631E050283470102638607048347B102FF
:1047F40093F707016390070413050102EFF05F913B
:1048040023A0A4021305C103EFF09F8993071000AE
:1048140023AEA40023AC0400A380F4008320C104CD
:1048240013050400032481048324410413010105B6
:1048340067800000130430006FF05FFE130101FE77
:10484400232C810003A4C181232A9100232E11006B
:10485400232821012326310123244101232251014C
:1048640023206101232006009304500063020408FE
:10487400834714009304400093F71700638A0706E4
:104884008324C4018327840193090500130A0600C5
:10489400B384F44063F4950093840500930A1000F4
:1048A400130B0020638604048327840113F7F71F86
:1048B400631007080349240013D797001309F9FF6D
:1048C4003379E9001379F90F631A0900639807042F
:1048D4000325040263FAAA002322A4020325440246
:1048E400EFF0CFFE63120504A3000400930410004C
:1048F4008320C10103248101032901018329C1000B
:10490400032A8100832A4100032B0100138504003C
:10491400832441011301010267800000032544023E
:10492400EFF05F8B6FF01FFB3309A90023242403EE
:10493400032684011376F61F3309CB4063F4240164
:104944001389040083258402930609001385090052
:10495400EFF04FECE31A05F883278401B384244174
:10496400B3872701232CF40083270A00B387270188
:104974002320FA00E38809F2B38929016FF09FF23A
:10498400130101FE232C810003A4C181232E1100F5
:10499400232A9100232821012326310123244101C4
:1049A400630804100347140093070500130540002F
:1049B40013771700630007028324C40163F497008C
:1049C4009384070083298401232C04006394040244
:1049D400130500008320C1010324810183244101C4
:1049E400032901018329C100032A81001301010263
:1049F400678000000349240013199900638A09069B
:104A0400930509001385F4FFEF00507B9389F9FFA8
:104A1400130A05009305090013850900EF00107AB5
:104A24006368AA04B307204103254402B3F737019E
:104A3400232CF400B384F4409309100063609904B8
:104A440083278401B384F400232C9400EFF00FE84F
:104A5400630A05048347240093D494009387F7FFE3
:104A6400B3F797003385A7002324A4026FF05FF601
:104A7400032504022322A4026FF01FFCEFF08FF53C
:104A840063F2A90283278400637EF50083278401EF
:104A94002322A402B3842441B3872701232CF400E6
:104AA4006FF0DFF9A3000400130510006FF09FF20C
:104AB400130550006FF01FF283A7C18163840706BA
:104AC400130101FC232C8102232E110293074100C0
:104AD400138605002322F500930501011304050044
:104AE400EFF09F9363180502834701016380070277
:104AF4008347B1011305300093F70701638C070066
:104B040013050101EFF0CFE02324A40013050400F2
:104B1400EFF04FE48320C103032481031301010454
:104B240067800000130550006780000083A7C181DF
:104B340063860716130101FB232291042320210518
:104B44002326110423248104232E310393074100D7
:104B54002322F50093040500138905006386050CE0
:104B64001304500E9309E00283A50401639E050C0F
:104B740083A7040113049900638A070893070101BA
:104B840013061901938607009305000213055000CC
:104B940003C70600630EB7006314A7001307500E83
:104BA40013041400A30FE4FE93861600E312C4FE5C
:104BB40083468101130700026388E6021307E002BB
:104BC4002300E400930644001306000213041400B7
:104BD40003C78700630AC70013041400A30FE4FE8D
:104BE40093871700E39686FE8347B1011305C1023C
:104BF4002304F900EFF0CFCA835781022320A900D0
:104C04002312F900835761022313F90023000400DF
:104C140013850400EFF0CFE6930730006318F50026
:104C2400130500006F008000EFF0CFD28320C10491
:104C34000324810483244104032901048329C10337
:104C4400130101056780000003D6040093060002E7
:104C5400130501011376F60013165600EFF08FBB0F
:104C64006312050403470101630207048347B1018A
:104C7400630887006306370193F78700E38A07EE2A
:104C840013850400EFF0CFDFE30005EE23A8040052
:104C940093073000E30EF5EC6FF05FF91305500055
:104CA40067800000130510006FF05FFE13053000ED
:104CB4006FF0DFFD9387018237260080938587009C
:104CC40013870182130686459376F500B306D60052
:104CD40083C6060093872700238FD7FE935645008B
:104CE40093F6F600B306D60083C606001355850076
:104CF400A38FD7FEE39AB7FC9307700093060003D3
:104D04003306F700034606006314D600639A0702CD
:104D1400B70601F01306F0FFB305F70083C50500DD
:104D240003A54600135805011378F80FE30A08FE9B
:104D340023A0B6009387F7FFE390C7FE67800000C7
:104D44009387F7FF6FF0DFFB370701F08347050018
:104D540063940700678000008326470013D606018A
:104D64001376F60FE30A06FE2320F7001305150059
:104D74006FF0DFFD130101FF23261100EFF0DFFCCC
:104D84008320C1003725008013054522130101014A
:104D94006FF09FFB130101FB23202105232C41030A
:104DA40023267103B70B001023229104232E310311
:104DB400232A510323286103232291032326110468
:104DC40023248104232481032320A103232EB1015E
:104DD40023A40182938481C9B72A0080938BFBFFAB
:104DE400B72C00801306C1009305800013850400CE
:104DF400EFF0DFA413040500938D81C9630205025B
:104E0400372500801305053BEFF01FF4130504005C
:104E1400EFF05FEA37250080130585336F0040010A
:104E24008327C10063960704372500801305853C5A
:104E3400EFF05FF48320C10403248104832441043C
:104E4400032901048329C103032A8103832A41031B
:104E5400032B0103832BC102032C8102832C410207
:104E6400032D0102832DC101130101056780000098
:104E7400130780006380E702372500801305853D12
:104E8400EFF09FEC0325C100EFF0DFE213858A33D6
:104E94006FF01FFA03A581821305850023A4A18264
:104EA400EFF01FAE130405006308050037250080EA
:104EB4001305853F6FF05FF503CC040083C714002E
:104EC40003C44400131C8C0193970701336CFC004A
:104ED40083C734001314840113850C41336CFC0024
:104EE40083C72400130D002093978700336CFC00C4
:104EF40083C7540023AA8183939707013364F40082
:104F040083C774003364F40083C7640093978700F5
:104F14003364F4003374740123A88182EFF0DFE278
:104F240013050C00EFF01FD9372500801305C54188
:104F3400EFF09FE113050400EFF0DFD713858A3308
:104F4400EFF05FE383A70183938507006374FD009B
:104F540093050020B387B7401306C100138581C9A8
:104F640023A6B18223A8F182EFF05F8D130405001C
:104F7400E31805E803A4C1828327C1006382870282
:104F84003725008013054542EFF01FDC13050400AC
:104F9400EFF05FD2372500801305C5436FF05FEE55
:104FA40083A6418313870D00130500008347070080
:104FB40003461700B385A6009397870113160601CD
:104FC400B3E7C7000346370013054500130747003E
:104FD400B3E7C7000346E7FF13168600B3E7C7002D
:104FE40023A0F500E31485FC83A78182B386A60081
:104FF40023AAD1823305F50023A4A182EFF05F98A0
:1050040013040500E31405EA83A70183E39C07F274
:105014006FF05FDD03274504B70600809386F6032F
:10502400130717003377D700832705046358070055
:105034001307F7FF136707FC13071700638CE702D6
:105044000327850463080702B706008093871700C7
:105054009386F603B3F7D70063D807009387F7FF67
:1050640093E707FC938717001307F7FF2320F50442
:105074002324E5046780000093172500B387A70065
:10508400939727009387C700138541EA3305F500FA
:10509400678000009307F0FF232005042322F50412
:1050A4002324050423220516678000009307F0FFDC
:1050B400232005042322F50423240504678000002B
:1050C40083274504370700801307F70393871700E6
:1050D400B3F7E70063D807009387F7FF93E707FC6C
:1050E400938717002322F504B307F5002380B70044
:1050F400832785041307E003938717002324F5040B
:10510400639AE7009307F0FF232005042322F504A4
:10511400232405046780000003264504B7060080A5
:105124009386F60393071600B3F7D7000327050405
:1051340063D807009387F7FF93E707FC938717006B
:10514400631AF70023800500A380050013052000DF
:10515400678000003307C740635407001307070440
:1051640037060080930600001306F6036356D70043
:10517400130500006780000083270504B387F60049
:10518400B3F7C70063D807009387F7FF93E707FCDB
:1051940093871700B307F50003C80700B387D5004A
:1051A40093861600238007016FF05FFC2322051607
:1051B4006780000003C70500631607061305100087
:1051C400678000006386D72E93871700338DFC0019
:1051D40003470D00E31807FE0347FDFF9307A000F4
:1051E400630AF708130510008320C106032481060F
:1051F40083244106032901068329C105032A810565
:10520400832A4105032B0105832BC104032C81044C
:10521400832C4104032D0104832DC10313010107D1
:1052240067800000130101F92324810623229106DB
:10523400232291052326110623202107232E31053D
:10524400232C4105232A51052328610523267105B2
:10525400232481052320A105232EB1031304050073
:10526400938C050093040600930700009306D00175
:105274006FF0DFF5232E0100232001022322010217
:105284002324010223260102138C0C00930700003F
:10529400930B0000130A0002930DA00013091000E1
:1052A40093099004930A6004130B30056302AC075E
:1052B40083460C001387170063844601639AB61D66
:1052C40093070702130701013387E700230607FE4C
:1052D40063900B0A83274416638807009306C4046B
:1052E40013070000634CF704139537003305F540AA
:1052F400131525003305A400130640019305C101CD
:105304001305C504EF10404583471C006394B71789
:105314000327441693173700B387E7409397270072
:10532400B307F40023A09706635E701713071700F2
:105334002322E416130500006FF01FEB138506000B
:1053440093850C002322D1002326E1002324F100BD
:10535400EF00407F832641009386C601E30405E8FD
:105364000327C10083278100130717006FF09FF7FD
:10537400E34A79E78347C101639037050347D101C5
:105384009307E004E310F7E60347E10193074005C0
:10539400E31AF7E40327441693173700B387E7406B
:1053A400B38777019387370193972700B307F400F6
:1053B40023AA07006FF05FF5639C57050347D101EB
:1053C4009307C004E310F7E20347E1019307F004F5
:1053D400E31AF7E00347F10193071004E314F7E03D
:1053E4000347010293074005E31EF7DE0327441633
:1053F40093173700B387E740B38777019387370163
:1054040093972700B307F40023AA27016FF0DFEF77
:10541400E39A67DD0347D10193074005E314F7DC02
:105424000347E10193072005E31EF7DA8347F101FF
:10543400E39A37DB034701029307E004E314F7DA46
:105444000347110293077004E31EF7D80327441699
:1054540093173700B387E740B38777019387370102
:1054640093972700B307F4001307200023AAE7004B
:105474006FF09FE983470C00E38CB7E9938B1B0023
:1054840013070000130C1C00930707006FF01FE2C2
:105494009387070213060101B387C7002386D7FE4B
:1054A4006FF05FFE9306F0FF23A2D7066FF01FE8AC
:1054B400130570006FF05FD3130101FE232E11005A
:1054C400232C8100232A9100232821012326310142
:1054D4002324410103244516630E040893040500A4
:1054E400138A05009309C504130900006346890063
:1054F400130510006F0080051385090093050A0049
:10550400EF0040649389C901631205069307F4FF11
:1055140023A2F4163304244193173900B387274197
:105524001316340093972700330686409385870625
:10553400131626009387C704130646FEB385B400EA
:105544003385F400EF108010130500008320C1019F
:105554000324810183244101032901018329C1001A
:10556400032A810013010102678000001309190056
:105574006FF0DFF7130520006FF05FFD83274516FA
:1055840063820732130101FA232C8104232E1104B0
:10559400232A9104232821052326310523244105A8
:1055A4002322510523206105232E7103232C81031B
:1055B400232A91032328A1032326B1038327450427
:1055C400370700801307F70393871700B3F7E70043
:1055D400832605041304050063D807009387F7FFA7
:1055E40093E707FC93871700130520006384F626CE
:1055F40037060080130700001306F6039305A00086
:10560400B307D700B3F7C70063D807009387F7FF42
:1056140093E707FC93871700B307F40083C70700D9
:10562400638CB700832784049387F7FF6388E72696
:10563400130717006FF0DFFC37070080930A0000A0
:105644001307F703930500021305A000B387DA00DC
:10565400B3F7E70063D807009387F7FF93E707FCE6
:1056640093871700B307F40083C707006384B70068
:10567400639CA70A93870A02B3872700238607FE41
:10568400938741EA23A4070023960700130BC4045D
:10569400938B0A00130C000093040000138A41EA60
:1056A400130910009309800093050B001305C10032
:1056B400EF0040496314050EB70C0080938CFC0383
:1056C400930D000293061000130DA0001306200092
:1056D40083270404B387FA00B3F7970163D807005C
:1056E4009387F7FF93E707FC93871700B307F4004A
:1056F40083C7070013870B02330727006384B701AE
:10570400639AA709230607FE23200A006314DC0416
:1057140083278B016344FC0263DE07029307700056
:105724002320FA006F0000031306C100330656015C
:105734002300F600938A1A006FF05FF1E390C7FE2E
:105744009305C1001305CA00EF100024930610004E
:10575400130620008327040423160100B387FA00EC
:10576400B3F7970163D807009387F7FF93E707FC24
:1057740093871700B307F40083C70700638EA7035A
:10578400130C1C00930BF0FF938B1B00938A1A00DD
:105794006FF01FF42306F7FE6FF01FFF93078000DE
:1057A4002320FA00832744169387F7FF6396970014
:1057B400930710002320FA0083270A006394270329
:1057C4009304A00083270404B307F40083C70700ED
:1057D4006390970C13050400EFF0DF8313051000AA
:1057E4006F004007638637031309A000638A07022A
:1057F4009304A00083270404B307F40083C70700BD
:10580400E38A97FC13050400EFF0DF806FF09FFE3E
:1058140093841400130BCB016FF01FE9EFF08FFF9B
:105824008327040413050400B307F40083C70700A7
:10583400E39627FFEFF00FFE93973400B38797406A
:1058440093972700B307F40083A70706E7800700B0
:1058540003250A008320C10503248105832441050F
:10586400032901058329C104032A8104832A4104ED
:10587400032B0104832BC103032C8103832C4103D9
:10588400032D0103832DC10213010106678000006B
:1058940013050400EFF00FF86FF0DFF2130520009A
:1058A4006FF05FFB130510006780000023220500E2
:1058B4009307F0FF2320F500678000002322B50042
:1058C400678000009307F0FF2320F5006780000045
:1058D4000325050067800000B70702F023A407042E
:1058E40023AC0182930700006394A7006780000043
:1058F40083A68183E38A06FE9387170023AC018283
:105904006FF09FFE130605001305000093F61500C3
:10591400638406003305C50093D5150013161600DD
:10592400E39605FE67800000130E0500130101FFD6
:1059340013830600232611001305060093080E00A6
:1059440093060600130700009307000013080000E5
:1059540093FE160013161700638A0E00338808019D
:10596400B387E70033371801B307F70013D7F801FB
:1059740093D616003367E60093981800E39A06FC62
:1059840063860500EFF01FF8B387A700630A0300DE
:1059940013050E0093050300EFF0DFF6B307F500DF
:1059A4008320C1001305080093850700130101013A
:1059B400678000006340050663C60506138605007C
:1059C400930505001305F0FF630C0602930610000F
:1059D400637AB6006358C000131616009396160037
:1059E400E36AB6FE1305000063E6C500B385C5404F
:1059F4003365D50093D6160013561600E39606FEBB
:105A04006780000093820000EFF05FFB13850500C0
:105A1400678002003305A0406348B000B305B0407E
:105A24006FF0DFF9B305B04093820000EFF01FF987
:105A34003305A040678002009382000063CA05001A
:105A4400634C0500EFF09FF71385050067800200A3
:105A5400B305B040E35805FE3305A040EFF01FF650
:105A64003305B040678002001303F00013070500FC
:105A7400637EC3029377F7006390070A6392050875
:105A8400937606FF1376F600B386E6002320B7006C
:105A94002322B7002324B7002326B70013070701E6
:105AA400E366D7FE6314060067800000B306C340B4
:105AB4009396260097020000B38656006780C600BE
:105AC4002307B700A306B7002306B700A305B70052
:105AD4002305B700A304B7002304B700A303B7004A
:105AE4002303B700A302B7002302B700A301B70042
:105AF4002301B700A300B7002300B70067800000AC
:105B040093F5F50F93968500B3E5D50093960501BB
:105B1400B3E5D5006FF0DFF69396270097020000F7
:105B2400B386560093820000E78006FA9380020051
:105B3400938707FF3307F7403306F600E378C3F68D
:105B44006FF0DFF33367B5009303F0FF137737008B
:105B540063100710B7877F7F9387F7F70326050045
:105B640083A60500B372F6003363F600B382F20035
:105B7400B3E26200639272106316D60803264500EE
:105B840083A64500B372F6003363F600B382F200D5
:105B9400B3E26200639E720C6316D6060326850088
:105BA40083A68500B372F6003363F600B382F20075
:105BB400B3E262006398720C6316D6040326C50030
:105BC40083A6C500B372F6003363F600B382F20015
:105BD400B3E262006392720C6316D60203260501D7
:105BE40083A60501B372F6003363F600B382F200B4
:105BF400B3E26200639C720A130545019385450173
:105C0400E30ED6F41317060193970601631EF700FB
:105C14001357060193D706013305F7409375F50F23
:105C240063900502678000001357070193D70701AB
:105C34003305F7409375F50F639405006780000002
:105C44001377F70F93F7F70F3305F74067800000DA
:105C54000346050083C6050013051500938515004A
:105C64006314D600E31606FE3305D64067800000B1
:105C74001305450093854500E31CD6FC130500007D
:105C8400678000001305850093858500E312D6FC28
:105C940013050000678000001305C5009385C50047
:105CA400E318D6FA13050000678000001305050108
:105CB40093850501E31ED6F81305000067800000F4
:105CC400130101FAB7070080232E1104232C810449
:105CD400232A910423282105232631052324410561
:105CE4002322510523206105232E7103232C8103D4
:105CF400232A91032328A1032326B10393870702B0
:105D040073905730372500801305851BEFD00F8B18
:105D1400370701F0832747009384C18393E7270063
:105D24002322F700B70700F01307F00023A4E700CD
:105D340023A2070013840404EFD08FAD13050400DD
:105D4400EFF04FB5B7250080138601139385851DA9
:105D540013050400EFF00FC6B7250080138641EC4D
:105D64009385C51E13050400EFF0CFC4B72500804A
:105D7400138641EF9385C51F13050400EFF08FC30D
:105D8400B7250080138601ED9385052113050400D2
:105D9400EFF04FC2B72500801386C1ED938505222D
:105DA40013050400EFF00FC1B7250080138681EEC0
:105DB4009385852213050400EFF0CFBFB72500803B
:105DC4001386C1F69385052313050400EFF08FBEF7
:105DD400B72500801386C1FD9385C52313050400F0
:105DE400EFF04FBDB72500801386C1179385C524F6
:105DF40013050400EFF00FBCB71700481307F0FFBA
:105E04003725008023A0E7001305C525EFC01FFB3D
:105E14001385841AEFE00FFC1387C18723A8A180A0
:105E2400930760002326E1001384C183631AF540BD
:105E34003725008013054526EFC05FF8372500801D
:105E440013054529370B000137290080EFC01FF7E0
:105E5400130BFBFFB7240080130AC9460325C100B6
:105E6400EFF0CFF113052003EFF01FA7370700F081
:105E74008327470093C7F7FF2322F70003C7A181B5
:105E8400630C071037250080238D01801305C52A74
:105E9400B7070040232AF100B70B0340EFC01FF2FD
:105EA400B72C0080232A0100370C004883274101C6
:105EB400938B4B0023AEFBFEB3F76B01639A070091
:105EC4001385CC3AEFC0DFEC13850B00EFC0DFE2A3
:105ED400E39E8BFD13858433EFC05FEE372500808E
:105EE4001305052CEFC09FEDB7070340232AF100EB
:105EF400B70B0340B72C0080370C004883274101BF
:105F0400938B4B0023AEFBFE83274101938747000D
:105F1400232AF100B3F76B01639A07001385CC3A87
:105F2400EFC01FE713850B00EFC01FDDE3988BFD67
:105F340013858433EFC09FE8372500801305452E71
:105F4400EFC01FE5B7070340232AF100B70B034056
:105F5400B72C0080370C004803A70B0083274101AE
:105F6400630EF72E3725008013058530EFC01FE53B
:105F740093850B0213850B00EFD04F801385843378
:105F8400EFC0DFE3B70700486398FB0037250080C4
:105F94001305C530EFC0DFDF03C791816318072EF7
:105FA40003C781816300070E37250080238C01809D
:105FB40013050534B7070040232CF100EFC01FE0A0
:105FC400379788FFB707C04713078788B706004885
:105FD40023A0E70093874700E39CD7FE3725008082
:105FE40013050535EFC09FDD9307F0FFA3090100FA
:105FF400370C01FFB70C00FF232EF100930B400078
:10600400130D2000130C0CF0938CFC0F930D400027
:106014000345310193055000EFF0DF9E1375F50F32
:1060240093073000630EF52E93074000630EF52EA0
:10603400930710006300F52E9307F0FF631EA52D50
:10604400232E91010327C1019306802A1306804D54
:106054009305400113054001EFC0DFE1834731019F
:1060640013052003938DFDFF9387170093F7F70F14
:10607400A309F100EFF05F86E39C0DF8938BFBFF1F
:10608400E3960BF803C771816314072A03C7618180
:106094006308070493050A001305441D238B01803C
:1060A400EFE09FA123A8A180938B01A1630C052C91
:1060B4003725008013054537EFC09FCD13050A002F
:1060C400EFC01FCD3725008013050538EFC05FCC26
:1060D40003A50181EFC05FC213858433EFC01FCED7
:1060E40003C751816300070AA38A0180B727008090
:1060F4001385C748EF009000B7250080930B050077
:10610400930D0500130630009385C5381385C183AC
:10611400372C0080EF00403C130DC946130CCC48CB
:106124006316052C930710006398FB0003470A02CB
:106134009307F002630EF7029307F002938BFBFFC1
:1061440033077C0103470700E31AF7FE33077D0199
:106154002300070263960B002310FD02930B10002B
:1061640013862B0093050C001305C946EF0040432A
:10617400372500801305453AEFC09FC11305C94672
:10618400EFC0DFC303C74181E30A07CC238A018040
:10619400B72700801385C748EF004076B72B0080EF
:1061A40093071000930CC946938BCB48631AF500F0
:1061B40003470A029307F002130D1000630AF70065
:1061C400B387AC001307F0022380E702130D150018
:1061D4009305440113850500EF0040721306050082
:1061E400130C0500938501853385AB01EF00C05680
:1061F400330CAC01B38C8C0113850B0023800C028F
:10620400EFE08FDA23A8A1806302052837250080F8
:1062140013050539EFC0DFB703A50181EFC0DFAD7A
:1062240013858433EFC09FB913850B00EFC01FB9EA
:1062340013061C009305C94613850B006F008024C8
:106244006308050037250080130585276FF0DFBE3E
:1062540037250080130505286FF01FBE83274101F1
:10626400938B4B0093874700232AF100B3F76B010C
:10627400639A07001385CC3AEFC09FB113850B00D6
:10628400EFC09FA7E39A8BCD6FF05FCFA38C018003
:10629400B727008083AB074B37F7FFFF9307104006
:1062A40063E4EB00930710009387F7FF2324F100C6
:1062B400130C0000372D0080930D7000832781009C
:1062C400E300FCCE937C7C0063920C02B727008031
:1062D4001385C733EFC0DFAB13850B00EFC0DFA11D
:1062E400B727008013858736EFC09FAA03A50B004C
:1062F400EFC09FA01305CD3AEFC09FA96396BC01E0
:1063040013858433EFC09FAB130C1C00938B4B009D
:106314006FF0DFFAB70700FF232EF1006FF09FD272
:10632400232E81016FF01FD2B707FFFF6FF0DFFE4E
:106334003725008013054536A38B0180930BC408D1
:10634400EFC0DFA7130D0000372C0080930CF0FF83
:106354008327441AE35CFDD21305CC36EFC05FA358
:1063640013850B00EFC0DFA283A78B01638697011F
:1063740013858433EFC09FA4130D1D00938BCB01B1
:106384006FF01FFD13050A00EFC09FA037250080A2
:1063940013058536EFC09FA2930C841E130D141FA2
:1063A400B72D0080372C008093850C0013850B00DB
:1063B400EFE0CFF723A8A180E31005D28347141F91
:1063C400E38C07D013050D00EFC09F9C8347041F87
:1063D40093F707016386070013858D38EFC05F9B31
:1063E4001305CC3AEFC0DF9A6FF01FFC1385C1830D
:1063F400EF00C05093071000930B0500639AFD0053
:1064040003470A029307F002930C1000630AF70093
:10641400B307BD011307F0022380E702938C1D002C
:1064240013860B009385C18333059C01EF00C032B2
:10643400B38B7C01330D7D0193050C001305441DC2
:1064440023000D02EFE04FE723A8A18013861B0071
:10645400E30A05D03725008013050539EFC05F93A3
:1064640003A50181EFC05F8913858433EFC01F95B5
:1064740013050C00EFC09F9413861C009305C946B6
:1064840013050C00EF00C0116FF05F9D37250080ED
:106494001305853AEFC0DF8F13850B00EFC05F8FC4
:1064A4003725008013058528EFC05F91EFE09F8EAC
:1064B4009307F0FF3717FF472320F7003727FF47DD
:1064C4002320F7003737FF472320F7003747FF47DC
:0864D4002320F7006FF0DFD573
:1064DC00630A0604B367B50093F7370063880704B3
:1064EC000347050083C605006314D70A9307100001
:1064FC00630AF602130805006F004001034705000C
:10650C0083C605006316D708638E070013051500B4
:10651C00B307A6409387F7FF93851500B307F800E0
:10652C00E31E07FC13050000678000003703FFFE25
:10653C00B7888080930730001303F3EF9388080823
:10654C00130E300063E0C7026FF09FF91306C6FF0D
:10655C00E30A06FCE39807FC130545009385450008
:10656C00E370CEF80327050083A60500B307670088
:10657C001348F7FFB3F70701B3F71701E308D7FC8C
:10658C000347050083C6050013080500E300D7F890
:08659C003305D74067800000C1
:1065A400B3E7A50093F7370063960700930730001D
:1065B40063E6C704130705006F00C00183C6F5FF37
:1065C4001308F6FFA38FD7FE638E06001387070018
:1065D400130608009385150093071700E31006FEC1
:1065E400678000003307C70063000806938717001D
:1065F400A38F07FEE39CE7FE678000003703FFFEDE
:10660400B7888080130705001303F3EF9388080805
:10661400130E30006F0080012320D7001306C6FF3D
:106624001307470093854500E376CEFA83A6050059
:10663400B387660013C8F6FFB3F70701B3F7170172
:0C664400E38C07FC6FF01FF9678000007A
:1066500063F6A5023387C5006372E502B307C50080
:10666000630606048346F7FF9387F7FF1307F7FFD8
:106670002380D700E318F5FE678000009307F00041
:1066800063E8C702930705009306F6FF6302060C52
:1066900093861600B386D70003C7050093871700BB
:1066A00093851500A38FE7FEE398D7FE678000006F
:1066B000B367B50093F7370063960708930806FFA2
:1066C00093F808FF93880801B306150113870500A6
:1066D00093070500032807001307070193870701A5
:1066E00023A807FF032847FF23AA07FF032887FFE4
:1066F00023AC07FF0328C7FF23AE07FFE39CD7FCAB
:106700001378C600B38515011377F60063040804F7
:106710001308C7FF1378C8FF13084800B3870601A2
:106720001387050083280700938646001307470058
:1067300023AE16FFE398F6FE13763600B385050107
:106740006FF09FF49306F6FF930705006FF05FF478
:0C67500067800000130607006FF01FF3C5
:10675C00B3C7A50093F73700B308C50063940706C9
:10676C009307300063F0C7069377350013070500D5
:10677C00639A070613F6C8FFB306E64093070002B8
:10678C0063CED70893860500930707006378C7028A
:10679C0003A80600938747009386460023AE07FFA5
:1067AC00E3E8C7FE9307F6FFB387E74093F7C7FF0D
:1067BC00938747003307F700B385F500636817012B
:1067CC0067800000130705006378150583C7050073
:1067DC001307170093851500A30FF7FEE398E8FE47
:1067EC006780000083C605001307170093773700F6
:1067FC00A30FD7FE93851500E38E07F683C605001D
:10680C001307170093773700A30FD7FE9385150056
:10681C00E39A07FC6FF01FF667800000130101FF7D
:10682C00232681001304000283A3050083A24500E4
:10683C0083AF850003AFC50083AE050103AE4501F0
:10684C0003A3850103A8C50183A60502130747020C
:10685C00B307E640232E77FC232057FE2322F7FFB5
:10686C002324E7FF2326D7FF2328C7FF232A67FE0D
:10687C00232C07FF232ED7FE93854502E346F4FA1B
:10688C0093860500930707006378C70203A80600E8
:10689C00938747009386460023AE07FFE3E8C7FEC5
:1068AC009307F6FFB387E74093F7C7FF938747003B
:1068BC003307F700B385F500636817010324C100A3
:1068CC00130101016780000083C70500130717003F
:1068DC0093851500A30FF7FEE382E8FE83C705003E
:1068EC001307170093851500A30FF7FEE39EE8FC32
:0468FC006FF0DFFC5E
:106900009377350013070500639C0704B7867F7FE4
:106910009386F6F79305F0FF032607001307470059
:10692000B377D600B387D700B3E7C700B3E7D70084
:10693000E384B7FE8346C7FFB307A740638406041A
:106940008346D7FF638C06020345E7FF3335A0007B
:106950003305F5001305E5FF67800000E38806FABC
:10696000834707001307170093763700E39807FE65
:106970003307A7401305F7FF678000001385D7FF93
:0C698000678000001385C7FF67800000DF
:10698C00B367B50093F737006392070803A70500B8
:10699C00B7867F7F9386F6F7B377D700B387D70098
:1069AC00B3E7E700B3E7D7001306F0FF639EC70613
:1069BC00130605001308F0FF2320E60003A745008B
:1069CC009385450013064600B377D700B387D700ED
:1069DC00B3E7E700B3E7D700E38007FF83C7050001
:1069EC0003C7150083C625002300F600638A070041
:1069FC00A300E600630607002301D600639406009B
:106A0C0067800000A3010600678000009307050063
:106A1C0003C705009387170093851500A38FE7FE26
:106A2C00E31807FE67800000130605006FF01FFBDC
:040000058000000077
:00000001FF
