:0200000480007A
:10000000370100801301010BE7000100130000001D
:1000100000000000000000000000000000000000E0
:10002000232E11FE232C51FE232A61FE232871FE6C
:100030002326A1FE2324B1FE2322C1FE2320D1FECC
:10004000232EE1FC232CF1FC232A01FD232811FDA2
:100050002326C1FD2324D1FD2322E1FD2320F1FD30
:10006000130101FCEF0040388320C1038322810388
:1000700003234103832301030325C1028325810256
:1000800003264102832601020327C1018327810140
:100090000328410183280101032EC100832E810022
:1000A000032F4100832F010013010104730020304E
:1000B00097110000938101A017010000130181171F
:1000C000170500001305051F938581806308B5009F
:1000D00023200500130545006FF05FFF138501AD78
:1000E0001301C1FF938501AD630EB50083260500A2
:1000F000130545002320A100E78006000325010029
:100100006FF05FFE130141003715000013050588ED
:1001100073104530372500001305858073100530B6
:10012000EF00403A6F0000000000000000000000F7
:1002300074696D657220696E697420737563636596
:100240007373210068656C6C6F20776F726C64202B
:1002500074616E67207072696D65722032306B2137
:1002600000000000656E7465722074696D6572200F
:1002700069727120737563636573732100000000F8
:1002800075617274207374617475732076616C7516
:10029000653A3078000000002E0000003031323323
:1002A0003435363738394142434445460000000072
:1002B800370700809307072B370600809385870050
:1002C8009306072B1306C6291377F5003307E600B4
:1002D8000347070093872700238FE7FE135745003E
:1002E8001377F7003307E600034707001355850027
:1002F800A38FE7FEE39AB7FC93077000370701F076
:100308001306F0FFB385F60083C5050003254700F3
:10031800135805011378F80FE30A08FE2320B700E5
:100328009387F7FFE390C7FE67800000370701F067
:100338008347050063940700678000008326470011
:1003480013D606011376F60FE30A06FE2320F700FC
:10035800130515006FF0DFFD130101FF23261100BF
:10036800EFF0DFFCB70701F003A74700935607013A
:1003780093F6F60FE38A06FE1307A00023A0E70012
:100388008320C1001301010167800000930700006A
:10039800370700F06394A7006780000083264700B2
:1003A800938717006FF01FFFB70702F013071000BD
:1003B80023AAE700B70702F01307703E23A0E7005F
:1003C800377700001307779723A2E70437050080E3
:1003D8001307200023A0E704130505236FF0DFF7B8
:1003E800130101FD23248102370402F023261102A0
:1003F800832704011304040163880702B70702F086
:1004080003A58704EFF0DFEA9307F0FF2320F40049
:10041800032481028320C102370500801305452685
:10042800130101036FF05FF3B70701F003A447005E
:1004380003A7470037050080130505281377D7FF62
:1004480023A2E700EFF09FEE13050400EFF05FE64C
:100458003705008013058529EFF01FF0930700008A
:10046800370401F0832604001387070233072700A7
:100478002306D7FE032744009387170093970701A5
:100488001357870193D70701E31E07FC93870702D9
:10049800B38727001305C100238607FEEFF01FE985
:1004A8008327440093E727002322F4008320C10216
:0C04B8000324810213010103678000008F
:1004C40037050080130101FE13054524232E110076
:1004D400232C8100232A9100232821012326310182
:1004E4002324410123225101EFF05FE7370701F094
:1004F4008327470037440F00B70400F093E7270031
:100504002322F700B70700F01307F00023A4E70045
:100514001307100023A2E700EFF05FE9930A10002D
:10052400130404241309200093094000130A8000D3
:100534001305040023A25401EFF09FE51305040002
:1005440023A22401EFF0DFE41305040023A2340105
:10055400EFF01FE41305040023A24401EFF05FE36E
:100564001305040023A23401EFF09FE213050400F5
:0C05740023A22401EFF0DFE16FF09FFBF9
:040000058000000077
:00000001FF
